{
  "_format": "hh-sol-artifact-1",
  "contractName": "MasterGardener",
  "sourceName": "contracts/MasterGardener.sol",
  "abi": [
    {
      "inputs": [
        {
          "internalType": "contract NDX",
          "name": "_govToken",
          "type": "address"
        },
        {
          "internalType": "uint256",
          "name": "_rewardPerSec",
          "type": "uint256"
        },
        {
          "internalType": "uint256",
          "name": "_startTimestamp",
          "type": "uint256"
        },
        {
          "internalType": "uint256",
          "name": "_halvingAfterTimestamp",
          "type": "uint256"
        },
        {
          "internalType": "uint256",
          "name": "_userDepFee",
          "type": "uint256"
        },
        {
          "internalType": "uint256[]",
          "name": "_rewardMultiplier",
          "type": "uint256[]"
        },
        {
          "internalType": "uint256[]",
          "name": "_timestampDeltaStartStage",
          "type": "uint256[]"
        },
        {
          "internalType": "uint256[]",
          "name": "_timestampDeltaEndStage",
          "type": "uint256[]"
        },
        {
          "internalType": "uint256[]",
          "name": "_userFeeStage",
          "type": "uint256[]"
        },
        {
          "internalType": "uint256[]",
          "name": "_devFeeStage",
          "type": "uint256[]"
        },
        {
          "internalType": "uint256[]",
          "name": "_lockPercent",
          "type": "uint256[]"
        }
      ],
      "stateMutability": "nonpayable",
      "type": "constructor"
    },
    {
      "anonymous": false,
      "inputs": [
        {
          "indexed": true,
          "internalType": "address",
          "name": "user",
          "type": "address"
        },
        {
          "indexed": true,
          "internalType": "uint256",
          "name": "pid",
          "type": "uint256"
        },
        {
          "indexed": false,
          "internalType": "uint256",
          "name": "amount",
          "type": "uint256"
        }
      ],
      "name": "Deposit",
      "type": "event"
    },
    {
      "anonymous": false,
      "inputs": [
        {
          "indexed": true,
          "internalType": "address",
          "name": "user",
          "type": "address"
        },
        {
          "indexed": true,
          "internalType": "uint256",
          "name": "pid",
          "type": "uint256"
        },
        {
          "indexed": false,
          "internalType": "uint256",
          "name": "amount",
          "type": "uint256"
        }
      ],
      "name": "EmergencyWithdraw",
      "type": "event"
    },
    {
      "anonymous": false,
      "inputs": [
        {
          "indexed": true,
          "internalType": "address",
          "name": "previousOwner",
          "type": "address"
        },
        {
          "indexed": true,
          "internalType": "address",
          "name": "newOwner",
          "type": "address"
        }
      ],
      "name": "OwnershipTransferred",
      "type": "event"
    },
    {
      "anonymous": false,
      "inputs": [
        {
          "indexed": true,
          "internalType": "address",
          "name": "user",
          "type": "address"
        },
        {
          "indexed": true,
          "internalType": "uint256",
          "name": "pid",
          "type": "uint256"
        },
        {
          "indexed": false,
          "internalType": "uint256",
          "name": "amount",
          "type": "uint256"
        },
        {
          "indexed": false,
          "internalType": "uint256",
          "name": "lockAmount",
          "type": "uint256"
        }
      ],
      "name": "SendGovernanceTokenReward",
      "type": "event"
    },
    {
      "anonymous": false,
      "inputs": [
        {
          "indexed": true,
          "internalType": "address",
          "name": "user",
          "type": "address"
        },
        {
          "indexed": true,
          "internalType": "uint256",
          "name": "pid",
          "type": "uint256"
        },
        {
          "indexed": false,
          "internalType": "uint256",
          "name": "amount",
          "type": "uint256"
        }
      ],
      "name": "Withdraw",
      "type": "event"
    },
    {
      "inputs": [],
      "name": "FINISH_BONUS_AT_TIMESTAMP",
      "outputs": [
        {
          "internalType": "uint256",
          "name": "",
          "type": "uint256"
        }
      ],
      "stateMutability": "view",
      "type": "function"
    },
    {
      "inputs": [
        {
          "internalType": "uint256",
          "name": "",
          "type": "uint256"
        }
      ],
      "name": "HALVING_AT_TIMESTAMP",
      "outputs": [
        {
          "internalType": "uint256",
          "name": "",
          "type": "uint256"
        }
      ],
      "stateMutability": "view",
      "type": "function"
    },
    {
      "inputs": [],
      "name": "PERCENT_FOR_DEV",
      "outputs": [
        {
          "internalType": "uint256",
          "name": "",
          "type": "uint256"
        }
      ],
      "stateMutability": "view",
      "type": "function"
    },
    {
      "inputs": [
        {
          "internalType": "uint256",
          "name": "",
          "type": "uint256"
        }
      ],
      "name": "PERCENT_LOCK_BONUS_REWARD",
      "outputs": [
        {
          "internalType": "uint256",
          "name": "",
          "type": "uint256"
        }
      ],
      "stateMutability": "view",
      "type": "function"
    },
    {
      "inputs": [
        {
          "internalType": "uint256",
          "name": "",
          "type": "uint256"
        }
      ],
      "name": "REWARD_MULTIPLIER",
      "outputs": [
        {
          "internalType": "uint256",
          "name": "",
          "type": "uint256"
        }
      ],
      "stateMutability": "view",
      "type": "function"
    },
    {
      "inputs": [],
      "name": "REWARD_PER_SEC",
      "outputs": [
        {
          "internalType": "uint256",
          "name": "",
          "type": "uint256"
        }
      ],
      "stateMutability": "view",
      "type": "function"
    },
    {
      "inputs": [],
      "name": "START_TIMESTAMP",
      "outputs": [
        {
          "internalType": "uint256",
          "name": "",
          "type": "uint256"
        }
      ],
      "stateMutability": "view",
      "type": "function"
    },
    {
      "inputs": [
        {
          "internalType": "uint256",
          "name": "_allocPoint",
          "type": "uint256"
        },
        {
          "internalType": "contract IERC20",
          "name": "_lpToken",
          "type": "address"
        },
        {
          "internalType": "bool",
          "name": "_withUpdate",
          "type": "bool"
        }
      ],
      "name": "add",
      "outputs": [],
      "stateMutability": "nonpayable",
      "type": "function"
    },
    {
      "inputs": [
        {
          "internalType": "address",
          "name": "_toAdd",
          "type": "address"
        }
      ],
      "name": "addAuthorized",
      "outputs": [],
      "stateMutability": "nonpayable",
      "type": "function"
    },
    {
      "inputs": [
        {
          "internalType": "address",
          "name": "",
          "type": "address"
        }
      ],
      "name": "authorized",
      "outputs": [
        {
          "internalType": "bool",
          "name": "",
          "type": "bool"
        }
      ],
      "stateMutability": "view",
      "type": "function"
    },
    {
      "inputs": [
        {
          "internalType": "uint256",
          "name": "_newFinish",
          "type": "uint256"
        }
      ],
      "name": "bonusFinishUpdate",
      "outputs": [],
      "stateMutability": "nonpayable",
      "type": "function"
    },
    {
      "inputs": [
        {
          "internalType": "uint256",
          "name": "_pid",
          "type": "uint256"
        }
      ],
      "name": "claimReward",
      "outputs": [],
      "stateMutability": "nonpayable",
      "type": "function"
    },
    {
      "inputs": [
        {
          "internalType": "uint256[]",
          "name": "_pids",
          "type": "uint256[]"
        }
      ],
      "name": "claimRewards",
      "outputs": [],
      "stateMutability": "nonpayable",
      "type": "function"
    },
    {
      "inputs": [
        {
          "internalType": "uint256",
          "name": "_pid",
          "type": "uint256"
        },
        {
          "internalType": "uint256",
          "name": "_amount",
          "type": "uint256"
        },
        {
          "internalType": "address",
          "name": "_ref",
          "type": "address"
        }
      ],
      "name": "deposit",
      "outputs": [],
      "stateMutability": "nonpayable",
      "type": "function"
    },
    {
      "inputs": [
        {
          "internalType": "address",
          "name": "_devaddr",
          "type": "address"
        }
      ],
      "name": "dev",
      "outputs": [],
      "stateMutability": "nonpayable",
      "type": "function"
    },
    {
      "inputs": [],
      "name": "devDepFee",
      "outputs": [
        {
          "internalType": "uint256",
          "name": "",
          "type": "uint256"
        }
      ],
      "stateMutability": "view",
      "type": "function"
    },
    {
      "inputs": [
        {
          "internalType": "uint256",
          "name": "",
          "type": "uint256"
        }
      ],
      "name": "devFeeStage",
      "outputs": [
        {
          "internalType": "uint256",
          "name": "",
          "type": "uint256"
        }
      ],
      "stateMutability": "view",
      "type": "function"
    },
    {
      "inputs": [],
      "name": "devaddr",
      "outputs": [
        {
          "internalType": "address",
          "name": "",
          "type": "address"
        }
      ],
      "stateMutability": "view",
      "type": "function"
    },
    {
      "inputs": [
        {
          "internalType": "uint256",
          "name": "_pid",
          "type": "uint256"
        }
      ],
      "name": "emergencyWithdraw",
      "outputs": [],
      "stateMutability": "nonpayable",
      "type": "function"
    },
    {
      "inputs": [
        {
          "internalType": "uint256",
          "name": "_from",
          "type": "uint256"
        },
        {
          "internalType": "uint256",
          "name": "_to",
          "type": "uint256"
        }
      ],
      "name": "getLockPercentage",
      "outputs": [
        {
          "internalType": "uint256",
          "name": "",
          "type": "uint256"
        }
      ],
      "stateMutability": "view",
      "type": "function"
    },
    {
      "inputs": [
        {
          "internalType": "uint256",
          "name": "_from",
          "type": "uint256"
        },
        {
          "internalType": "uint256",
          "name": "_to",
          "type": "uint256"
        }
      ],
      "name": "getMultiplier",
      "outputs": [
        {
          "internalType": "uint256",
          "name": "",
          "type": "uint256"
        }
      ],
      "stateMutability": "view",
      "type": "function"
    },
    {
      "inputs": [
        {
          "internalType": "uint256",
          "name": "pid1",
          "type": "uint256"
        }
      ],
      "name": "getNewRewardPerBlock",
      "outputs": [
        {
          "internalType": "uint256",
          "name": "",
          "type": "uint256"
        }
      ],
      "stateMutability": "view",
      "type": "function"
    },
    {
      "inputs": [
        {
          "internalType": "uint256",
          "name": "_from",
          "type": "uint256"
        },
        {
          "internalType": "uint256",
          "name": "_to",
          "type": "uint256"
        },
        {
          "internalType": "uint256",
          "name": "_allocPoint",
          "type": "uint256"
        }
      ],
      "name": "getPoolReward",
      "outputs": [
        {
          "internalType": "uint256",
          "name": "forDev",
          "type": "uint256"
        },
        {
          "internalType": "uint256",
          "name": "forFarmer",
          "type": "uint256"
        }
      ],
      "stateMutability": "view",
      "type": "function"
    },
    {
      "inputs": [],
      "name": "govToken",
      "outputs": [
        {
          "internalType": "contract NDX",
          "name": "",
          "type": "address"
        }
      ],
      "stateMutability": "view",
      "type": "function"
    },
    {
      "inputs": [
        {
          "internalType": "uint256[]",
          "name": "_newHalving",
          "type": "uint256[]"
        }
      ],
      "name": "halvingUpdate",
      "outputs": [],
      "stateMutability": "nonpayable",
      "type": "function"
    },
    {
      "inputs": [
        {
          "internalType": "uint256[]",
          "name": "_newlock",
          "type": "uint256[]"
        }
      ],
      "name": "lockUpdate",
      "outputs": [],
      "stateMutability": "nonpayable",
      "type": "function"
    },
    {
      "inputs": [
        {
          "internalType": "uint256",
          "name": "_newdevlock",
          "type": "uint256"
        }
      ],
      "name": "lockdevUpdate",
      "outputs": [],
      "stateMutability": "nonpayable",
      "type": "function"
    },
    {
      "inputs": [],
      "name": "massUpdatePools",
      "outputs": [],
      "stateMutability": "nonpayable",
      "type": "function"
    },
    {
      "inputs": [],
      "name": "owner",
      "outputs": [
        {
          "internalType": "address",
          "name": "",
          "type": "address"
        }
      ],
      "stateMutability": "view",
      "type": "function"
    },
    {
      "inputs": [
        {
          "internalType": "uint256",
          "name": "_pid",
          "type": "uint256"
        },
        {
          "internalType": "address",
          "name": "_user",
          "type": "address"
        }
      ],
      "name": "pendingReward",
      "outputs": [
        {
          "internalType": "uint256",
          "name": "",
          "type": "uint256"
        }
      ],
      "stateMutability": "view",
      "type": "function"
    },
    {
      "inputs": [
        {
          "internalType": "contract IERC20",
          "name": "",
          "type": "address"
        }
      ],
      "name": "poolExistence",
      "outputs": [
        {
          "internalType": "bool",
          "name": "",
          "type": "bool"
        }
      ],
      "stateMutability": "view",
      "type": "function"
    },
    {
      "inputs": [
        {
          "internalType": "address",
          "name": "",
          "type": "address"
        }
      ],
      "name": "poolId1",
      "outputs": [
        {
          "internalType": "uint256",
          "name": "",
          "type": "uint256"
        }
      ],
      "stateMutability": "view",
      "type": "function"
    },
    {
      "inputs": [
        {
          "internalType": "uint256",
          "name": "",
          "type": "uint256"
        }
      ],
      "name": "poolInfo",
      "outputs": [
        {
          "internalType": "contract IERC20",
          "name": "lpToken",
          "type": "address"
        },
        {
          "internalType": "uint256",
          "name": "allocPoint",
          "type": "uint256"
        },
        {
          "internalType": "uint256",
          "name": "lastRewardTimestamp",
          "type": "uint256"
        },
        {
          "internalType": "uint256",
          "name": "accGovTokenPerShare",
          "type": "uint256"
        }
      ],
      "stateMutability": "view",
      "type": "function"
    },
    {
      "inputs": [],
      "name": "poolLength",
      "outputs": [
        {
          "internalType": "uint256",
          "name": "",
          "type": "uint256"
        }
      ],
      "stateMutability": "view",
      "type": "function"
    },
    {
      "inputs": [
        {
          "internalType": "address",
          "name": "_newOwner",
          "type": "address"
        }
      ],
      "name": "reclaimTokenOwnership",
      "outputs": [],
      "stateMutability": "nonpayable",
      "type": "function"
    },
    {
      "inputs": [
        {
          "internalType": "address",
          "name": "_toRemove",
          "type": "address"
        }
      ],
      "name": "removeAuthorized",
      "outputs": [],
      "stateMutability": "nonpayable",
      "type": "function"
    },
    {
      "inputs": [],
      "name": "renounceOwnership",
      "outputs": [],
      "stateMutability": "nonpayable",
      "type": "function"
    },
    {
      "inputs": [
        {
          "internalType": "uint256",
          "name": "_pid",
          "type": "uint256"
        },
        {
          "internalType": "address",
          "name": "_user",
          "type": "address"
        },
        {
          "internalType": "uint256",
          "name": "timestamp",
          "type": "uint256"
        }
      ],
      "name": "reviseDeposit",
      "outputs": [],
      "stateMutability": "nonpayable",
      "type": "function"
    },
    {
      "inputs": [
        {
          "internalType": "uint256",
          "name": "_pid",
          "type": "uint256"
        },
        {
          "internalType": "address",
          "name": "_user",
          "type": "address"
        },
        {
          "internalType": "uint256",
          "name": "timestamp",
          "type": "uint256"
        }
      ],
      "name": "reviseWithdraw",
      "outputs": [],
      "stateMutability": "nonpayable",
      "type": "function"
    },
    {
      "inputs": [
        {
          "internalType": "uint256[]",
          "name": "_newMulReward",
          "type": "uint256[]"
        }
      ],
      "name": "rewardMulUpdate",
      "outputs": [],
      "stateMutability": "nonpayable",
      "type": "function"
    },
    {
      "inputs": [
        {
          "internalType": "uint256",
          "name": "_newReward",
          "type": "uint256"
        }
      ],
      "name": "rewardUpdate",
      "outputs": [],
      "stateMutability": "nonpayable",
      "type": "function"
    },
    {
      "inputs": [
        {
          "internalType": "uint256",
          "name": "_pid",
          "type": "uint256"
        },
        {
          "internalType": "uint256",
          "name": "_allocPoint",
          "type": "uint256"
        },
        {
          "internalType": "bool",
          "name": "_withUpdate",
          "type": "bool"
        }
      ],
      "name": "set",
      "outputs": [],
      "stateMutability": "nonpayable",
      "type": "function"
    },
    {
      "inputs": [
        {
          "internalType": "uint256",
          "name": "_devDepFees",
          "type": "uint256"
        }
      ],
      "name": "setDevDepFee",
      "outputs": [],
      "stateMutability": "nonpayable",
      "type": "function"
    },
    {
      "inputs": [
        {
          "internalType": "uint256[]",
          "name": "_devFees",
          "type": "uint256[]"
        }
      ],
      "name": "setDevFeeStage",
      "outputs": [],
      "stateMutability": "nonpayable",
      "type": "function"
    },
    {
      "inputs": [
        {
          "internalType": "uint256[]",
          "name": "_timestampEnds",
          "type": "uint256[]"
        }
      ],
      "name": "setStageEnds",
      "outputs": [],
      "stateMutability": "nonpayable",
      "type": "function"
    },
    {
      "inputs": [
        {
          "internalType": "uint256[]",
          "name": "_timestampStarts",
          "type": "uint256[]"
        }
      ],
      "name": "setStageStarts",
      "outputs": [],
      "stateMutability": "nonpayable",
      "type": "function"
    },
    {
      "inputs": [
        {
          "internalType": "uint256",
          "name": "_usrDepFees",
          "type": "uint256"
        }
      ],
      "name": "setUserDepFee",
      "outputs": [],
      "stateMutability": "nonpayable",
      "type": "function"
    },
    {
      "inputs": [
        {
          "internalType": "uint256[]",
          "name": "_userFees",
          "type": "uint256[]"
        }
      ],
      "name": "setUserFeeStage",
      "outputs": [],
      "stateMutability": "nonpayable",
      "type": "function"
    },
    {
      "inputs": [
        {
          "internalType": "uint256",
          "name": "_newstarblock",
          "type": "uint256"
        }
      ],
      "name": "starblockUpdate",
      "outputs": [],
      "stateMutability": "nonpayable",
      "type": "function"
    },
    {
      "inputs": [
        {
          "internalType": "uint256",
          "name": "",
          "type": "uint256"
        }
      ],
      "name": "timestampDeltaEndStage",
      "outputs": [
        {
          "internalType": "uint256",
          "name": "",
          "type": "uint256"
        }
      ],
      "stateMutability": "view",
      "type": "function"
    },
    {
      "inputs": [
        {
          "internalType": "uint256",
          "name": "",
          "type": "uint256"
        }
      ],
      "name": "timestampDeltaStartStage",
      "outputs": [
        {
          "internalType": "uint256",
          "name": "",
          "type": "uint256"
        }
      ],
      "stateMutability": "view",
      "type": "function"
    },
    {
      "inputs": [],
      "name": "totalAllocPoint",
      "outputs": [
        {
          "internalType": "uint256",
          "name": "",
          "type": "uint256"
        }
      ],
      "stateMutability": "view",
      "type": "function"
    },
    {
      "inputs": [
        {
          "internalType": "address",
          "name": "newOwner",
          "type": "address"
        }
      ],
      "name": "transferOwnership",
      "outputs": [],
      "stateMutability": "nonpayable",
      "type": "function"
    },
    {
      "inputs": [
        {
          "internalType": "uint256",
          "name": "_pid",
          "type": "uint256"
        }
      ],
      "name": "updatePool",
      "outputs": [],
      "stateMutability": "nonpayable",
      "type": "function"
    },
    {
      "inputs": [
        {
          "internalType": "uint256",
          "name": "_pid",
          "type": "uint256"
        }
      ],
      "name": "userDelta",
      "outputs": [
        {
          "internalType": "uint256",
          "name": "",
          "type": "uint256"
        }
      ],
      "stateMutability": "view",
      "type": "function"
    },
    {
      "inputs": [],
      "name": "userDepFee",
      "outputs": [
        {
          "internalType": "uint256",
          "name": "",
          "type": "uint256"
        }
      ],
      "stateMutability": "view",
      "type": "function"
    },
    {
      "inputs": [
        {
          "internalType": "uint256",
          "name": "",
          "type": "uint256"
        }
      ],
      "name": "userFeeStage",
      "outputs": [
        {
          "internalType": "uint256",
          "name": "",
          "type": "uint256"
        }
      ],
      "stateMutability": "view",
      "type": "function"
    },
    {
      "inputs": [
        {
          "internalType": "uint256",
          "name": "",
          "type": "uint256"
        },
        {
          "internalType": "address",
          "name": "",
          "type": "address"
        }
      ],
      "name": "userInfo",
      "outputs": [
        {
          "internalType": "uint256",
          "name": "amount",
          "type": "uint256"
        },
        {
          "internalType": "uint256",
          "name": "rewardDebt",
          "type": "uint256"
        },
        {
          "internalType": "uint256",
          "name": "rewardDebtAtTimestamp",
          "type": "uint256"
        },
        {
          "internalType": "uint256",
          "name": "lastWithdrawTimestamp",
          "type": "uint256"
        },
        {
          "internalType": "uint256",
          "name": "firstDepositTimestamp",
          "type": "uint256"
        },
        {
          "internalType": "uint256",
          "name": "timestampdelta",
          "type": "uint256"
        },
        {
          "internalType": "uint256",
          "name": "lastDepositTimestamp",
          "type": "uint256"
        }
      ],
      "stateMutability": "view",
      "type": "function"
    },
    {
      "inputs": [
        {
          "internalType": "uint256",
          "name": "_pid",
          "type": "uint256"
        },
        {
          "internalType": "uint256",
          "name": "_amount",
          "type": "uint256"
        },
        {
          "internalType": "address",
          "name": "_ref",
          "type": "address"
        }
      ],
      "name": "withdraw",
      "outputs": [],
      "stateMutability": "nonpayable",
      "type": "function"
    },
    {
      "inputs": [
        {
          "internalType": "uint256",
          "name": "_pid",
          "type": "uint256"
        }
      ],
      "name": "withdrawFeePercent",
      "outputs": [
        {
          "internalType": "uint256",
          "name": "",
          "type": "uint256"
        }
      ],
      "stateMutability": "view",
      "type": "function"
    }
  ],
  "bytecode": "0x608060405260006016553480156200001657600080fd5b506040516200445b3803806200445b83398181016040526101608110156200003d57600080fd5b815160208301516040808501516060860151608087015160a0880180519451969895979396929591949293820192846401000000008211156200007f57600080fd5b9083019060208201858111156200009557600080fd5b8251866020820283011164010000000082111715620000b357600080fd5b82525081516020918201928201910280838360005b83811015620000e2578181015183820152602001620000c8565b50505050905001604052602001805160405193929190846401000000008211156200010c57600080fd5b9083019060208201858111156200012257600080fd5b82518660208202830111640100000000821117156200014057600080fd5b82525081516020918201928201910280838360005b838110156200016f57818101518382015260200162000155565b50505050905001604052602001805160405193929190846401000000008211156200019957600080fd5b908301906020820185811115620001af57600080fd5b8251866020820283011164010000000082111715620001cd57600080fd5b82525081516020918201928201910280838360005b83811015620001fc578181015183820152602001620001e2565b50505050905001604052602001805160405193929190846401000000008211156200022657600080fd5b9083019060208201858111156200023c57600080fd5b82518660208202830111640100000000821117156200025a57600080fd5b82525081516020918201928201910280838360005b83811015620002895781810151838201526020016200026f565b5050505090500160405260200180516040519392919084640100000000821115620002b357600080fd5b908301906020820185811115620002c957600080fd5b8251866020820283011164010000000082111715620002e757600080fd5b82525081516020918201928201910280838360005b8381101562000316578181015183820152602001620002fc565b50505050905001604052602001805160405193929190846401000000008211156200034057600080fd5b9083019060208201858111156200035657600080fd5b82518660208202830111640100000000821117156200037457600080fd5b82525081516020918201928201910280838360005b83811015620003a357818101518382015260200162000389565b505050509050016040525050506000620003c2620005a560201b60201c565b600080546001600160a01b0319166001600160a01b0383169081178255604051929350917f8be0079c531659141344cd1fd0a4f28419497f9722a3daafe3b4186f6b6457e0908290a3506001600255600380546001600160a01b0319166001600160a01b038d1617905560058a9055600f899055600d8790558551620004509060069060208901906200066b565b508451620004669060089060208801906200066b565b5083516200047c9060099060208701906200066b565b5082516200049290600a9060208601906200066b565b508151620004a890600b9060208501906200066b565b508051620004be9060109060208401906200066b565b5060005b60065460001901811015620005415760006200050f6001620004fb8d620004fb866001018f620005a960201b6200339d1790919060201c565b6200061060201b620033fd1790919060201c565b60078054600181810183556000929092526000805160206200441a8339815191520191909155919091019050620004c2565b506200056989620004fb6001600680549050038b620005a960201b6200339d1790919060201c565b600c555050600780546001810182556000919091526000196000805160206200441a8339815191529091015550620006d2975050505050505050565b3390565b600082620005ba575060006200060a565b82820282848281620005c857fe5b0414620006075760405162461bcd60e51b81526004018080602001828103825260218152602001806200443a6021913960400191505060405180910390fd5b90505b92915050565b60008282018381101562000607576040805162461bcd60e51b815260206004820152601b60248201527f536166654d6174683a206164646974696f6e206f766572666c6f770000000000604482015290519081900360640190fd5b828054828255906000526020600020908101928215620006a9579160200282015b82811115620006a95782518255916020019190600101906200068c565b50620006b7929150620006bb565b5090565b5b80821115620006b75760008155600101620006bc565b613d3880620006e26000396000f3fe608060405234801561001057600080fd5b50600436106103a35760003560e01c80637c39c9c9116101e9578063b91816111161010f578063d007db29116100ad578063eda670481161007c578063eda6704814610eb3578063f2fde38b14610ed9578063f930e77014610eff578063fb07543314610f22576103a3565b8063d007db2914610e69578063d49e77cd14610e86578063e1cfa5ab14610e8e578063ed9bdeda14610eab576103a3565b8063c8ed7680116100e9578063c8ed768014610db5578063cbd258b514610df7578063ce2529c914610e1d578063cf1c316a14610e43576103a3565b8063b918161114610d56578063beff2a5314610d90578063c56a10ff14610dad576103a3565b80638da5cb5b1161018757806398969e821161015657806398969e8214610cd3578063a82859c514610cff578063ae169a5014610d1c578063b606696214610d39576103a3565b80638da5cb5b14610c125780638dbb1e3a14610c1a5780638dbdbe6d14610c3d57806393f1a40b14610c6f576103a3565b8063847bdaa4116101c3578063847bdaa414610a8d5780638b36e64e14610b2e5780638cc883ce14610b4b5780638d88a90e14610bec576103a3565b80637c39c9c914610a3657806382386d5814610a5357806382796e9814610a85576103a3565b80632ec4d4f2116102ce57806351eb05a61161026c578063630b5ba11161023b578063630b5ba1146109f357806364482f79146109fb578063715018a614610a26578063781cd99d14610a2e576103a3565b806351eb05a6146108e65780635312ea8e146109035780635eac6239146109205780636066debd146109c1576103a3565b80633d479cd5116102a85780633d479cd514610761578063466640641461077e578063485d7d941461081f5780634af0e3e114610845576103a3565b80632ec4d4f21461069b5780632fda7735146106a3578063354affb7146106c0576103a3565b806315664dfc11610346578063245b211d11610315578063245b211d1461051f57806324b95c3e1461053c57806327e68928146105595780632a7b0107146105fa576103a3565b806315664dfc146104be57806317caf6f1146104c65780631d465c82146104ce5780631eaaa045146104eb576103a3565b806309ae4d2c1161038257806309ae4d2c146104035780630ad58d2f1461042057806313f789a8146104545780631526fe2714610471576103a3565b80626fcbf0146103a857806305268cff146103d7578063081e3eda146103fb575b600080fd5b6103c5600480360360208110156103be57600080fd5b5035610f3f565b60408051918252519081900360200190f35b6103df610f5d565b604080516001600160a01b039092168252519081900360200190f35b6103c5610f6c565b6103c56004803603602081101561041957600080fd5b5035610f72565b6104526004803603606081101561043657600080fd5b50803590602081013590604001356001600160a01b0316610fb0565b005b6103c56004803603602081101561046a57600080fd5b50356115c8565b61048e6004803603602081101561048757600080fd5b50356115d5565b604080516001600160a01b0390951685526020850193909352838301919091526060830152519081900360800190f35b6103c5611616565b6103c561161c565b6103c5600480360360208110156104e457600080fd5b5035611622565b6104526004803603606081101561050157600080fd5b508035906001600160a01b0360208201351690604001351515611695565b6104526004803603602081101561053557600080fd5b50356118ef565b6104526004803603602081101561055257600080fd5b5035611960565b6104526004803603602081101561056f57600080fd5b810190602081018135600160201b81111561058957600080fd5b82018360208201111561059b57600080fd5b803590602001918460208302840111600160201b831117156105bc57600080fd5b9190808060200260200160405190810160405280939291908181526020018383602002808284376000920191909152509295506119d1945050505050565b6104526004803603602081101561061057600080fd5b810190602081018135600160201b81111561062a57600080fd5b82018360208201111561063c57600080fd5b803590602001918460208302840111600160201b8311171561065d57600080fd5b919080806020026020016040519081016040528093929190818152602001838360200280828437600092019190915250929550611a54945050505050565b6103c5611ad3565b6103c5600480360360208110156106b957600080fd5b5035611ad9565b610452600480360360208110156106d657600080fd5b810190602081018135600160201b8111156106f057600080fd5b82018360208201111561070257600080fd5b803590602001918460208302840111600160201b8311171561072357600080fd5b919080806020026020016040519081016040528093929190818152602001838360200280828437600092019190915250929550611ae6945050505050565b6104526004803603602081101561077757600080fd5b5035611b65565b6104526004803603602081101561079457600080fd5b810190602081018135600160201b8111156107ae57600080fd5b8201836020820111156107c057600080fd5b803590602001918460208302840111600160201b831117156107e157600080fd5b919080806020026020016040519081016040528093929190818152602001838360200280828437600092019190915250929550611bd6945050505050565b6104526004803603602081101561083557600080fd5b50356001600160a01b0316611c55565b6104526004803603602081101561085b57600080fd5b810190602081018135600160201b81111561087557600080fd5b82018360208201111561088757600080fd5b803590602001918460208302840111600160201b831117156108a857600080fd5b919080806020026020016040519081016040528093929190818152602001838360200280828437600092019190915250929550611cee945050505050565b610452600480360360208110156108fc57600080fd5b5035611d6d565b6104526004803603602081101561091957600080fd5b5035611ff1565b6104526004803603602081101561093657600080fd5b810190602081018135600160201b81111561095057600080fd5b82018360208201111561096257600080fd5b803590602001918460208302840111600160201b8311171561098357600080fd5b919080806020026020016040519081016040528093929190818152602001838360200280828437600092019190915250929550612140945050505050565b610452600480360360608110156109d757600080fd5b508035906001600160a01b036020820135169060400135612170565b610452612205565b61045260048036036060811015610a1157600080fd5b50803590602081013590604001351515612224565b6104526122ff565b6103c56123ab565b61045260048036036020811015610a4c57600080fd5b50356123b1565b61045260048036036060811015610a6957600080fd5b508035906001600160a01b036020820135169060400135612422565b6103c56124b7565b61045260048036036020811015610aa357600080fd5b810190602081018135600160201b811115610abd57600080fd5b820183602082011115610acf57600080fd5b803590602001918460208302840111600160201b83111715610af057600080fd5b9190808060200260200160405190810160405280939291908181526020018383602002808284376000920191909152509295506124bd945050505050565b6103c560048036036020811015610b4457600080fd5b503561253c565b61045260048036036020811015610b6157600080fd5b810190602081018135600160201b811115610b7b57600080fd5b820183602082011115610b8d57600080fd5b803590602001918460208302840111600160201b83111715610bae57600080fd5b919080806020026020016040519081016040528093929190818152602001838360200280828437600092019190915250929550612810945050505050565b61045260048036036020811015610c0257600080fd5b50356001600160a01b031661288f565b6103df61291d565b6103c560048036036040811015610c3057600080fd5b508035906020013561292c565b61045260048036036060811015610c5357600080fd5b50803590602081013590604001356001600160a01b0316612a28565b610c9b60048036036040811015610c8557600080fd5b50803590602001356001600160a01b0316612c33565b604080519788526020880196909652868601949094526060860192909252608085015260a084015260c0830152519081900360e00190f35b6103c560048036036040811015610ce957600080fd5b50803590602001356001600160a01b0316612c82565b6103c560048036036020811015610d1557600080fd5b5035612dca565b61045260048036036020811015610d3257600080fd5b5035612dd7565b61045260048036036020811015610d4f57600080fd5b5035612de9565b610d7c60048036036020811015610d6c57600080fd5b50356001600160a01b0316612e5a565b604080519115158252519081900360200190f35b6103c560048036036020811015610da657600080fd5b5035612e6f565b6103c5612e7c565b610dde60048036036060811015610dcb57600080fd5b5080359060208101359060400135612e82565b6040805192835260208301919091528051918290030190f35b610d7c60048036036020811015610e0d57600080fd5b50356001600160a01b0316612fed565b6103c560048036036020811015610e3357600080fd5b50356001600160a01b0316613002565b61045260048036036020811015610e5957600080fd5b50356001600160a01b0316613014565b6103c560048036036020811015610e7f57600080fd5b503561309d565b6103df6130aa565b6103c560048036036020811015610ea457600080fd5b50356130b9565b6103c56130c6565b61045260048036036020811015610ec957600080fd5b50356001600160a01b03166130cc565b61045260048036036020811015610eef57600080fd5b50356001600160a01b031661319a565b6103c560048036036040811015610f1557600080fd5b508035906020013561329c565b61045260048036036020811015610f3857600080fd5b503561332c565b60088181548110610f4c57fe5b600091825260209091200154905081565b6003546001600160a01b031681565b60125490565b60008181526014602090815260408083203384529091528120600381015415610fa2576003015442039050610fab565b60040154420390505b919050565b600280541415611007576040805162461bcd60e51b815260206004820152601f60248201527f5265656e7472616e637947756172643a207265656e7472616e742063616c6c00604482015290519081900360640190fd5b6002808190555060006012848154811061101d57fe5b6000918252602080832087845260148252604080852033865290925292208054600490920290920192508411156110855760405162461bcd60e51b8152600401808060200182810382526022815260200180613c8d6022913960400191505060405180910390fd5b61108e85611d6d565b61109785613457565b83156115bc5780546110a990856136e3565b81556003810154156110c6576003810154420360058201556110d3565b6004810154420360058201555b60086000815481106110e157fe5b9060005260206000200154816005015410806111005750806006015442145b1561117f576111513361113f6064611139600a60008154811061111f57fe5b90600052602060002001548961339d90919063ffffffff16565b90613740565b84546001600160a01b031691906137a7565b600454600b805461117a926001600160a01b03169161113f916064916111399160009061111f57fe5b61155e565b600860018154811061118d57fe5b90600052602060002001548160050154101580156111c7575060096000815481106111b457fe5b9060005260206000200154816005015411155b15611211576111e63361113f6064611139600a60018154811061111f57fe5b600454600b805461117a926001600160a01b03169161113f9160649161113991600190811061111f57fe5b600860028154811061121f57fe5b90600052602060002001548160050154101580156112595750600960018154811061124657fe5b9060005260206000200154816005015411155b156112a3576112783361113f6064611139600a60028154811061111f57fe5b600454600b805461117a926001600160a01b03169161113f9160649161113991600290811061111f57fe5b60086003815481106112b157fe5b90600052602060002001548160050154101580156112eb575060096002815481106112d857fe5b9060005260206000200154816005015411155b156113355761130a3361113f6064611139600a60038154811061111f57fe5b600454600b805461117a926001600160a01b03169161113f9160649161113991600390811061111f57fe5b600860048154811061134357fe5b906000526020600020015481600501541015801561137d5750600960038154811061136a57fe5b9060005260206000200154816005015411155b156113cb5761139c3361113f6064611139600a60048154811061111f57fe5b61117a600460009054906101000a90046001600160a01b031661113f6064611139600b60048154811061111f57fe5b60086005815481106113d957fe5b90600052602060002001548160050154101580156114135750600960048154811061140057fe5b9060005260206000200154816005015411155b1561145f576114333361113f6103e8611139600a60058154811061111f57fe5b600454600b805461117a926001600160a01b03169161113f916103e89161113991600590811061111f57fe5b600860068154811061146d57fe5b90600052602060002001548160050154101580156114a75750600960058154811061149457fe5b9060005260206000200154816005015411155b156114f3576114c73361113f612710611139600a60068154811061111f57fe5b600454600b805461117a926001600160a01b03169161113f916127109161113991600690811061111f57fe5b600860078154811061150157fe5b90600052602060002001548160050154111561155e576115323361113f612710611139600a60078154811061111f57fe5b600454600b805461155e926001600160a01b03169161113f916127109161113991600790811061111f57fe5b600382015481546115799164e8d4a51000916111399161339d565b6001820155604080518581529051869133917ff279e6a1f5e320cca91135676d9cb6e44ca8a08c0b88342bcdb1144f6511b5689181900360200190a34260038201555b50506001600255505050565b60078181548110610f4c57fe5b601281815481106115e257fe5b600091825260209091206004909102018054600182015460028301546003909301546001600160a01b039092169350919084565b60055481565b60165481565b600080611632600142034261292c565b90508261164f5760055461164790829061339d565b915050610fab565b6116476016546111396012600187038154811061166857fe5b90600052602060002090600402016001015461168f6005548661339d90919063ffffffff16565b9061339d565b61169d6137f9565b6001600160a01b03166116ae61291d565b6001600160a01b0316146116f7576040805162461bcd60e51b81526020600482018190526024820152600080516020613c4d833981519152604482015290519081900360640190fd5b6001600160a01b038216600090815260156020526040902054829060ff16156117515760405162461bcd60e51b8152600401808060200182810382526029815260200180613ba76029913960400191505060405180910390fd5b6001600160a01b038316600090815260136020526040902054156117a65760405162461bcd60e51b815260040180806020018281038252602a815260200180613caf602a913960400191505060405180910390fd5b81156117b4576117b4612205565b6000600f5442116117c757600f546117c9565b425b6016549091506117d990866133fd565b601655601280546001600160a01b0395861660008181526013602090815260408083206001958601905560158252808320805460ff1916861790558051608081018252938452908301998a5282019485526060820181815284549384018555939052517fbb8a6a4669ba250d26cd7a459eca9d215f8307e33aebe50379bc5a3617ec3444600490920291820180546001600160a01b031916919097161790955594517fbb8a6a4669ba250d26cd7a459eca9d215f8307e33aebe50379bc5a3617ec3445850155517fbb8a6a4669ba250d26cd7a459eca9d215f8307e33aebe50379bc5a3617ec3446840155505090517fbb8a6a4669ba250d26cd7a459eca9d215f8307e33aebe50379bc5a3617ec344790910155565b3360009081526001602052604090205460ff168061191c57503361191161291d565b6001600160a01b0316145b61195b576040805162461bcd60e51b81526020600482015260186024820152600080516020613c6d833981519152604482015290519081900360640190fd5b600c55565b3360009081526001602052604090205460ff168061198d57503361198261291d565b6001600160a01b0316145b6119cc576040805162461bcd60e51b81526020600482015260186024820152600080516020613c6d833981519152604482015290519081900360640190fd5b600f55565b3360009081526001602052604090205460ff16806119fe5750336119f361291d565b6001600160a01b0316145b611a3d576040805162461bcd60e51b81526020600482015260186024820152600080516020613c6d833981519152604482015290519081900360640190fd5b8051611a50906010906020840190613b20565b5050565b3360009081526001602052604090205460ff1680611a81575033611a7661291d565b6001600160a01b0316145b611ac0576040805162461bcd60e51b81526020600482015260186024820152600080516020613c6d833981519152604482015290519081900360640190fd5b8051611a5090600a906020840190613b20565b600c5481565b60068181548110610f4c57fe5b3360009081526001602052604090205460ff1680611b13575033611b0861291d565b6001600160a01b0316145b611b52576040805162461bcd60e51b81526020600482015260186024820152600080516020613c6d833981519152604482015290519081900360640190fd5b8051611a50906007906020840190613b20565b3360009081526001602052604090205460ff1680611b92575033611b8761291d565b6001600160a01b0316145b611bd1576040805162461bcd60e51b81526020600482015260186024820152600080516020613c6d833981519152604482015290519081900360640190fd5b600555565b3360009081526001602052604090205460ff1680611c03575033611bf861291d565b6001600160a01b0316145b611c42576040805162461bcd60e51b81526020600482015260186024820152600080516020613c6d833981519152604482015290519081900360640190fd5b8051611a50906006906020840190613b20565b611c5d6137f9565b6001600160a01b0316611c6e61291d565b6001600160a01b031614611cb7576040805162461bcd60e51b81526020600482018190526024820152600080516020613c4d833981519152604482015290519081900360640190fd5b6001600160a01b038116331415611ccd57600080fd5b6001600160a01b03166000908152600160205260409020805460ff19169055565b3360009081526001602052604090205460ff1680611d1b575033611d1061291d565b6001600160a01b0316145b611d5a576040805162461bcd60e51b81526020600482015260186024820152600080516020613c6d833981519152604482015290519081900360640190fd5b8051611a50906009906020840190613b20565b600060128281548110611d7c57fe5b9060005260206000209060040201905080600201544211611d9d5750611fee565b8054604080516370a0823160e01b815230600482015290516000926001600160a01b0316916370a08231916024808301926020929190829003018186803b158015611de757600080fd5b505afa158015611dfb573d6000803e3d6000fd5b505050506040513d6020811015611e1157600080fd5b5051905080611e27575042600290910155611fee565b600080611e3d8460020154428660010154612e82565b600354604080516340c10f1960e01b81523060048201526024810184905290519395509193506001600160a01b0316916340c10f199160448082019260009290919082900301818387803b158015611e9457600080fd5b505af1158015611ea8573d6000803e3d6000fd5b50505050611ed6611ecb8461113964e8d4a510008561339d90919063ffffffff16565b6003860154906133fd565b60038501554260028501558115611fe95760035460048054604080516340c10f1960e01b81526001600160a01b039283169381019390935260248301869052519216916340c10f199160448082019260009290919082900301818387803b158015611f4057600080fd5b505af1158015611f54573d6000803e3d6000fd5b50505050600c544211611fe9576003546004546001600160a01b039182169163282d3fdf9116611f8a606461113987604b61339d565b6040518363ffffffff1660e01b815260040180836001600160a01b0316815260200182815260200192505050600060405180830381600087803b158015611fd057600080fd5b505af1158015611fe4573d6000803e3d6000fd5b505050505b505050505b50565b600280541415612048576040805162461bcd60e51b815260206004820152601f60248201527f5265656e7472616e637947756172643a207265656e7472616e742063616c6c00604482015290519081900360640190fd5b6002808190555060006012828154811061205e57fe5b60009182526020808320858452601482526040808520338652909252908320805460049093029091019350919061209d9060649061113990604b61339d565b905060006120be60646111396019866000015461339d90919063ffffffff16565b6000808555600185015584549091506120e1906001600160a01b031633846137a7565b60045484546120fd916001600160a01b039182169116836137a7565b604080518381529051869133917fbb757047c2b5f3974fe26b7c10f732e7bce710b0952a71082702781e62ae05959181900360200190a350506001600255505050565b60005b8151811015611a505761216882828151811061215b57fe5b6020026020010151612dd7565b600101612143565b3360009081526001602052604090205460ff168061219d57503361219261291d565b6001600160a01b0316145b6121dc576040805162461bcd60e51b81526020600482015260186024820152600080516020613c6d833981519152604482015290519081900360640190fd5b60009283526014602090815260408085206001600160a01b039094168552929052912060030155565b60125460005b81811015611a505761221c81611d6d565b60010161220b565b61222c6137f9565b6001600160a01b031661223d61291d565b6001600160a01b031614612286576040805162461bcd60e51b81526020600482018190526024820152600080516020613c4d833981519152604482015290519081900360640190fd5b801561229457612294612205565b6122d1826122cb601286815481106122a857fe5b9060005260206000209060040201600101546016546136e390919063ffffffff16565b906133fd565b60168190555081601284815481106122e557fe5b906000526020600020906004020160010181905550505050565b6123076137f9565b6001600160a01b031661231861291d565b6001600160a01b031614612361576040805162461bcd60e51b81526020600482018190526024820152600080516020613c4d833981519152604482015290519081900360640190fd5b600080546040516001600160a01b03909116907f8be0079c531659141344cd1fd0a4f28419497f9722a3daafe3b4186f6b6457e0908390a3600080546001600160a01b0319169055565b600f5481565b3360009081526001602052604090205460ff16806123de5750336123d361291d565b6001600160a01b0316145b61241d576040805162461bcd60e51b81526020600482015260186024820152600080516020613c6d833981519152604482015290519081900360640190fd5b600d55565b3360009081526001602052604090205460ff168061244f57503361244461291d565b6001600160a01b0316145b61248e576040805162461bcd60e51b81526020600482015260186024820152600080516020613c6d833981519152604482015290519081900360640190fd5b60009283526014602090815260408085206001600160a01b039094168552929052912060040155565b600d5481565b3360009081526001602052604090205460ff16806124ea5750336124df61291d565b6001600160a01b0316145b612529576040805162461bcd60e51b81526020600482015260186024820152600080516020613c6d833981519152604482015290519081900360640190fd5b8051611a50906008906020840190613b20565b6000806012838154811061254c57fe5b6000918252602080832086845260148252604080852033865290925290832060038101546004909302909101935091901561258e575060038101544203612597565b50600481015442035b60086000815481106125a557fe5b90600052602060002001548110806125c05750816006015442145b156125e857600a6000815481106125d357fe5b90600052602060002001549350505050610fab565b60086001815481106125f657fe5b906000526020600020015481101580156126285750600960008154811061261957fe5b90600052602060002001548111155b1561263b57600b6001815481106125d357fe5b600860028154811061264957fe5b9060005260206000200154811015801561267b5750600960018154811061266c57fe5b90600052602060002001548111155b1561268e57600b6002815481106125d357fe5b600860038154811061269c57fe5b906000526020600020015481101580156126ce575060096002815481106126bf57fe5b90600052602060002001548111155b156126e157600b6003815481106125d357fe5b60086004815481106126ef57fe5b906000526020600020015481101580156127215750600960038154811061271257fe5b90600052602060002001548111155b1561273457600a6004815481106125d357fe5b600860058154811061274257fe5b906000526020600020015481101580156127745750600960048154811061276557fe5b90600052602060002001548111155b1561278757600b6005815481106125d357fe5b600860068154811061279557fe5b906000526020600020015481101580156127c7575060096005815481106127b857fe5b90600052602060002001548111155b156127da57600b6006815481106125d357fe5b60086007815481106127e857fe5b906000526020600020015481111561280857600b6007815481106125d357fe5b505050919050565b3360009081526001602052604090205460ff168061283d57503361283261291d565b6001600160a01b0316145b61287c576040805162461bcd60e51b81526020600482015260186024820152600080516020613c6d833981519152604482015290519081900360640190fd5b8051611a5090600b906020840190613b20565b3360009081526001602052604090205460ff16806128bc5750336128b161291d565b6001600160a01b0316145b6128fb576040805162461bcd60e51b81526020600482015260186024820152600080516020613c6d833981519152604482015290519081900360640190fd5b600480546001600160a01b0319166001600160a01b0392909216919091179055565b6000546001600160a01b031690565b600f546000908190841015612945576000915050612a22565b60005b600754811015612a1e5760006007828154811061296157fe5b9060005260206000200154905060016006805490500382111561298a5760009350505050612a22565b8085116129d05760006129b9600684815481106129a357fe5b60009182526020909120015461168f888a6136e3565b90506129c584826133fd565b945050505050612a22565b80861015612a15576000612a00600684815481106129ea57fe5b60009182526020909120015461168f848a6136e3565b91965086919050612a1184826133fd565b9350505b50600101612948565b5090505b92915050565b600280541415612a7f576040805162461bcd60e51b815260206004820152601f60248201527f5265656e7472616e637947756172643a207265656e7472616e742063616c6c00604482015290519081900360640190fd5b6002805581612abf5760405162461bcd60e51b8152600401808060200182810382526036815260200180613c176036913960400191505060405180910390fd5b600060128481548110612ace57fe5b60009182526020808320878452601482526040808520338652909252818420600480546001600160a01b031686529290942092909102019250612b1086611d6d565b612b1986613457565b8254612b30906001600160a01b03163330886137fd565b8154612b3d574260028301555b612b6d612b65612b5e612710611139600d548a61339d90919063ffffffff16565b87906136e3565b8354906133fd565b8083556003840154612b8a9164e8d4a5100091611139919061339d565b6001830155600d54612bb190612ba9906127109061113990899061339d565b8254906133fd565b8082556003840154612bce9164e8d4a5100091611139919061339d565b6001820155604080518681529051879133917f90890809c654f11d6e72a28fa60149770a0d11ec6c92319d6ceb2bb0a4ea1a159181900360200190a3600482015415612c1957612c20565b4260048301555b5042600690910155505060016002555050565b6014602052816000526040600020602052806000526040600020600091509150508060000154908060010154908060020154908060030154908060040154908060050154908060060154905087565b60008060128481548110612c9257fe5b600091825260208083208784526014825260408085206001600160a01b03898116875290845281862060049586029093016003810154815484516370a0823160e01b81523098810198909852935191985093969395939492909116926370a08231926024808301939192829003018186803b158015612d1057600080fd5b505afa158015612d24573d6000803e3d6000fd5b505050506040513d6020811015612d3a57600080fd5b5051600285015490915042118015612d525750600081115b15612d91576000612d6c8560020154428760010154612e82565b9150612d8d9050612d86836111398464e8d4a5100061339d565b84906133fd565b9250505b612dbf8360010154612db964e8d4a5100061113986886000015461339d90919063ffffffff16565b906136e3565b979650505050505050565b60108181548110610f4c57fe5b612de081611d6d565b611fee81613457565b3360009081526001602052604090205460ff1680612e16575033612e0b61291d565b6001600160a01b0316145b612e55576040805162461bcd60e51b81526020600482015260186024820152600080516020613c6d833981519152604482015290519081900360640190fd5b601155565b60016020526000908152604090205460ff1681565b600b8181548110610f4c57fe5b600e5481565b6000806000612e91868661292c565b90506000612eb46016546111398761168f6005548761339d90919063ffffffff16565b90506000612fac600360009054906101000a90046001600160a01b03166001600160a01b03166318160ddd6040518163ffffffff1660e01b815260040160206040518083038186803b158015612f0957600080fd5b505afa158015612f1d573d6000803e3d6000fd5b505050506040513d6020811015612f3357600080fd5b505160035460408051631aa93a7560e11b815290516001600160a01b039092169163355274ea91600480820192602092909190829003018186803b158015612f7a57600080fd5b505afa158015612f8e573d6000803e3d6000fd5b505050506040513d6020811015612fa457600080fd5b5051906136e3565b905081811015612fc25760009450809350612fe2565b612fdc60646111396011548561339d90919063ffffffff16565b94508193505b505050935093915050565b60156020526000908152604090205460ff1681565b60136020526000908152604090205481565b61301c6137f9565b6001600160a01b031661302d61291d565b6001600160a01b031614613076576040805162461bcd60e51b81526020600482018190526024820152600080516020613c4d833981519152604482015290519081900360640190fd5b6001600160a01b03166000908152600160208190526040909120805460ff19169091179055565b600a8181548110610f4c57fe5b6004546001600160a01b031681565b60098181548110610f4c57fe5b60115481565b3360009081526001602052604090205460ff16806130f95750336130ee61291d565b6001600160a01b0316145b613138576040805162461bcd60e51b81526020600482015260186024820152600080516020613c6d833981519152604482015290519081900360640190fd5b6003546040805163f2fde38b60e01b81526001600160a01b0384811660048301529151919092169163f2fde38b91602480830192600092919082900301818387803b15801561318657600080fd5b505af1158015611fe9573d6000803e3d6000fd5b6131a26137f9565b6001600160a01b03166131b361291d565b6001600160a01b0316146131fc576040805162461bcd60e51b81526020600482018190526024820152600080516020613c4d833981519152604482015290519081900360640190fd5b6001600160a01b0381166132415760405162461bcd60e51b8152600401808060200182810382526026815260200180613b816026913960400191505060405180910390fd5b600080546040516001600160a01b03808516939216917f8be0079c531659141344cd1fd0a4f28419497f9722a3daafe3b4186f6b6457e091a3600080546001600160a01b0319166001600160a01b0392909216919091179055565b600f5460009081908410156132b5576064915050612a22565b60005b600754811015612a1e576000600782815481106132d157fe5b906000526020600020015490506001601080549050038211156132fa5760009350505050612a22565b808511613323576010828154811061330e57fe5b90600052602060002001549350505050612a22565b506001016132b8565b3360009081526001602052604090205460ff168061335957503361334e61291d565b6001600160a01b0316145b613398576040805162461bcd60e51b81526020600482015260186024820152600080516020613c6d833981519152604482015290519081900360640190fd5b600e55565b6000826133ac57506000612a22565b828202828482816133b957fe5b04146133f65760405162461bcd60e51b8152600401808060200182810382526021815260200180613bf66021913960400191505060405180910390fd5b9392505050565b6000828201838110156133f6576040805162461bcd60e51b815260206004820152601b60248201527f536166654d6174683a206164646974696f6e206f766572666c6f770000000000604482015290519081900360640190fd5b60006012828154811061346657fe5b600091825260208083208584526014825260408085203386529092529220805460049092029092019250156136de5760006134c38260010154612db964e8d4a510006111398760030154876000015461339d90919063ffffffff16565b600354604080516370a0823160e01b815230600482015290519293506000926001600160a01b03909216916370a0823191602480820192602092909190829003018186803b15801561351457600080fd5b505afa158015613528573d6000803e3d6000fd5b505050506040513d602081101561353e57600080fd5b505190508082111561354e578091505b81156136bb576003546040805163a9059cbb60e01b81523360048201526024810185905290516001600160a01b039092169163a9059cbb916044808201926020929091908290030181600087803b1580156135a857600080fd5b505af11580156135bc573d6000803e3d6000fd5b505050506040513d60208110156135d257600080fd5b5050600c546002840154600091106136745760006135f3600142034261329c565b90506136046064611139868461339d565b6003546040805163282d3fdf60e01b81523360048201526024810184905290519294506001600160a01b039091169163282d3fdf9160448082019260009290919082900301818387803b15801561365a57600080fd5b505af115801561366e573d6000803e3d6000fd5b50505050505b42600285015560408051848152602081018390528151889233927f3887f2857beaaf367eb618dfb5e22c1ebd74425affb0602c2e9fe126e3f860eb929081900390910190a3505b600384015483546136d69164e8d4a51000916111399161339d565b600184015550505b505050565b60008282111561373a576040805162461bcd60e51b815260206004820152601e60248201527f536166654d6174683a207375627472616374696f6e206f766572666c6f770000604482015290519081900360640190fd5b50900390565b6000808211613796576040805162461bcd60e51b815260206004820152601a60248201527f536166654d6174683a206469766973696f6e206279207a65726f000000000000604482015290519081900360640190fd5b81838161379f57fe5b049392505050565b604080516001600160a01b038416602482015260448082018490528251808303909101815260649091019091526020810180516001600160e01b031663a9059cbb60e01b1790526136de90849061385d565b3390565b604080516001600160a01b0380861660248301528416604482015260648082018490528251808303909101815260849091019091526020810180516001600160e01b03166323b872dd60e01b17905261385790859061385d565b50505050565b60606138b2826040518060400160405280602081526020017f5361666545524332303a206c6f772d6c6576656c2063616c6c206661696c6564815250856001600160a01b031661390e9092919063ffffffff16565b8051909150156136de578080602001905160208110156138d157600080fd5b50516136de5760405162461bcd60e51b815260040180806020018281038252602a815260200180613cd9602a913960400191505060405180910390fd5b606061391d8484600085613925565b949350505050565b6060824710156139665760405162461bcd60e51b8152600401808060200182810382526026815260200180613bd06026913960400191505060405180910390fd5b61396f85613a76565b6139c0576040805162461bcd60e51b815260206004820152601d60248201527f416464726573733a2063616c6c20746f206e6f6e2d636f6e7472616374000000604482015290519081900360640190fd5b60006060866001600160a01b031685876040518082805190602001908083835b602083106139ff5780518252601f1990920191602091820191016139e0565b6001836020036101000a03801982511681845116808217855250505050505090500191505060006040518083038185875af1925050503d8060008114613a61576040519150601f19603f3d011682016040523d82523d6000602084013e613a66565b606091505b5091509150612dbf828286613a7c565b3b151590565b60608315613a8b5750816133f6565b825115613a9b5782518084602001fd5b8160405162461bcd60e51b81526004018080602001828103825283818151815260200191508051906020019080838360005b83811015613ae5578181015183820152602001613acd565b50505050905090810190601f168015613b125780820380516001836020036101000a031916815260200191505b509250505060405180910390fd5b828054828255906000526020600020908101928215613b5b579160200282015b82811115613b5b578251825591602001919060010190613b40565b50613b67929150613b6b565b5090565b5b80821115613b675760008155600101613b6c56fe4f776e61626c653a206e6577206f776e657220697320746865207a65726f20616464726573734d617374657247617264656e65723a3a6e6f6e4475706c6963617465643a206475706c696361746564416464726573733a20696e73756666696369656e742062616c616e636520666f722063616c6c536166654d6174683a206d756c7469706c69636174696f6e206f766572666c6f774d617374657247617264656e65723a3a6465706f7369743a20616d6f756e74206d7573742062652067726561746572207468616e20304f776e61626c653a2063616c6c6572206973206e6f7420746865206f776e657263616c6c6572206973206e6f7420617574686f72697a656400000000000000004d617374657247617264656e65723a3a77697468647261773a206e6f7420676f6f644d617374657247617264656e65723a3a6164643a206c7020697320616c726561647920696e20706f6f6c5361666545524332303a204552433230206f7065726174696f6e20646964206e6f742073756363656564a2646970667358221220059129633c993e9058b6c9dd146ef31f82abcf6449f3a396e43d5a147495786364736f6c634300060c0033a66cc928b5edb82af9bd49922954155ab7b0942694bea4ce44661d9a8736c688536166654d6174683a206d756c7469706c69636174696f6e206f766572666c6f77",
  "linkReferences": {},
  "deployedLinkReferences": {}
}