{
  "_format": "hh-sol-artifact-1",
  "contractName": "NDX",
  "sourceName": "contracts/NDX.sol",
  "abi": [
    {
      "inputs": [
        {
          "internalType": "string",
          "name": "_name",
          "type": "string"
        },
        {
          "internalType": "string",
          "name": "_symbol",
          "type": "string"
        },
        {
          "internalType": "uint256",
          "name": "cap_",
          "type": "uint256"
        },
        {
          "internalType": "uint256",
          "name": "_manualMintLimit",
          "type": "uint256"
        },
        {
          "internalType": "uint256",
          "name": "_lockFromTimestamp",
          "type": "uint256"
        },
        {
          "internalType": "uint256",
          "name": "_lockToTimestamp",
          "type": "uint256"
        }
      ],
      "stateMutability": "nonpayable",
      "type": "constructor"
    },
    {
      "anonymous": false,
      "inputs": [
        {
          "indexed": true,
          "internalType": "address",
          "name": "owner",
          "type": "address"
        },
        {
          "indexed": true,
          "internalType": "address",
          "name": "spender",
          "type": "address"
        },
        {
          "indexed": false,
          "internalType": "uint256",
          "name": "value",
          "type": "uint256"
        }
      ],
      "name": "Approval",
      "type": "event"
    },
    {
      "anonymous": false,
      "inputs": [
        {
          "indexed": true,
          "internalType": "address",
          "name": "delegator",
          "type": "address"
        },
        {
          "indexed": true,
          "internalType": "address",
          "name": "fromDelegate",
          "type": "address"
        },
        {
          "indexed": true,
          "internalType": "address",
          "name": "toDelegate",
          "type": "address"
        }
      ],
      "name": "DelegateChanged",
      "type": "event"
    },
    {
      "anonymous": false,
      "inputs": [
        {
          "indexed": true,
          "internalType": "address",
          "name": "delegate",
          "type": "address"
        },
        {
          "indexed": false,
          "internalType": "uint256",
          "name": "previousBalance",
          "type": "uint256"
        },
        {
          "indexed": false,
          "internalType": "uint256",
          "name": "newBalance",
          "type": "uint256"
        }
      ],
      "name": "DelegateVotesChanged",
      "type": "event"
    },
    {
      "anonymous": false,
      "inputs": [
        {
          "indexed": true,
          "internalType": "address",
          "name": "to",
          "type": "address"
        },
        {
          "indexed": false,
          "internalType": "uint256",
          "name": "value",
          "type": "uint256"
        }
      ],
      "name": "Lock",
      "type": "event"
    },
    {
      "anonymous": false,
      "inputs": [
        {
          "indexed": false,
          "internalType": "uint256",
          "name": "previousRate",
          "type": "uint256"
        },
        {
          "indexed": false,
          "internalType": "uint256",
          "name": "newRate",
          "type": "uint256"
        }
      ],
      "name": "MaxTransferAmountRateUpdated",
      "type": "event"
    },
    {
      "anonymous": false,
      "inputs": [
        {
          "indexed": true,
          "internalType": "address",
          "name": "previousOwner",
          "type": "address"
        },
        {
          "indexed": true,
          "internalType": "address",
          "name": "newOwner",
          "type": "address"
        }
      ],
      "name": "OwnershipTransferred",
      "type": "event"
    },
    {
      "anonymous": false,
      "inputs": [
        {
          "indexed": true,
          "internalType": "address",
          "name": "from",
          "type": "address"
        },
        {
          "indexed": true,
          "internalType": "address",
          "name": "to",
          "type": "address"
        },
        {
          "indexed": false,
          "internalType": "uint256",
          "name": "value",
          "type": "uint256"
        }
      ],
      "name": "Transfer",
      "type": "event"
    },
    {
      "anonymous": false,
      "inputs": [
        {
          "indexed": true,
          "internalType": "address",
          "name": "to",
          "type": "address"
        },
        {
          "indexed": false,
          "internalType": "uint256",
          "name": "value",
          "type": "uint256"
        }
      ],
      "name": "Unlock",
      "type": "event"
    },
    {
      "inputs": [],
      "name": "DELEGATION_TYPEHASH",
      "outputs": [
        {
          "internalType": "bytes32",
          "name": "",
          "type": "bytes32"
        }
      ],
      "stateMutability": "view",
      "type": "function"
    },
    {
      "inputs": [],
      "name": "DOMAIN_TYPEHASH",
      "outputs": [
        {
          "internalType": "bytes32",
          "name": "",
          "type": "bytes32"
        }
      ],
      "stateMutability": "view",
      "type": "function"
    },
    {
      "inputs": [
        {
          "internalType": "address",
          "name": "_toAdd",
          "type": "address"
        }
      ],
      "name": "addAuthorized",
      "outputs": [],
      "stateMutability": "nonpayable",
      "type": "function"
    },
    {
      "inputs": [
        {
          "internalType": "address",
          "name": "owner",
          "type": "address"
        },
        {
          "internalType": "address",
          "name": "spender",
          "type": "address"
        }
      ],
      "name": "allowance",
      "outputs": [
        {
          "internalType": "uint256",
          "name": "",
          "type": "uint256"
        }
      ],
      "stateMutability": "view",
      "type": "function"
    },
    {
      "inputs": [
        {
          "internalType": "address",
          "name": "spender",
          "type": "address"
        },
        {
          "internalType": "uint256",
          "name": "amount",
          "type": "uint256"
        }
      ],
      "name": "approve",
      "outputs": [
        {
          "internalType": "bool",
          "name": "",
          "type": "bool"
        }
      ],
      "stateMutability": "nonpayable",
      "type": "function"
    },
    {
      "inputs": [
        {
          "internalType": "address",
          "name": "",
          "type": "address"
        }
      ],
      "name": "authorized",
      "outputs": [
        {
          "internalType": "bool",
          "name": "",
          "type": "bool"
        }
      ],
      "stateMutability": "view",
      "type": "function"
    },
    {
      "inputs": [
        {
          "internalType": "address",
          "name": "account",
          "type": "address"
        }
      ],
      "name": "balanceOf",
      "outputs": [
        {
          "internalType": "uint256",
          "name": "",
          "type": "uint256"
        }
      ],
      "stateMutability": "view",
      "type": "function"
    },
    {
      "inputs": [
        {
          "internalType": "address",
          "name": "_holder",
          "type": "address"
        }
      ],
      "name": "canUnlockAmount",
      "outputs": [
        {
          "internalType": "uint256",
          "name": "",
          "type": "uint256"
        }
      ],
      "stateMutability": "view",
      "type": "function"
    },
    {
      "inputs": [],
      "name": "cap",
      "outputs": [
        {
          "internalType": "uint256",
          "name": "",
          "type": "uint256"
        }
      ],
      "stateMutability": "view",
      "type": "function"
    },
    {
      "inputs": [
        {
          "internalType": "uint256",
          "name": "_newCap",
          "type": "uint256"
        }
      ],
      "name": "capUpdate",
      "outputs": [],
      "stateMutability": "nonpayable",
      "type": "function"
    },
    {
      "inputs": [
        {
          "internalType": "address",
          "name": "",
          "type": "address"
        },
        {
          "internalType": "uint32",
          "name": "",
          "type": "uint32"
        }
      ],
      "name": "checkpoints",
      "outputs": [
        {
          "internalType": "uint32",
          "name": "fromBlock",
          "type": "uint32"
        },
        {
          "internalType": "uint256",
          "name": "votes",
          "type": "uint256"
        }
      ],
      "stateMutability": "view",
      "type": "function"
    },
    {
      "inputs": [],
      "name": "circulatingSupply",
      "outputs": [
        {
          "internalType": "uint256",
          "name": "",
          "type": "uint256"
        }
      ],
      "stateMutability": "view",
      "type": "function"
    },
    {
      "inputs": [],
      "name": "decimals",
      "outputs": [
        {
          "internalType": "uint8",
          "name": "",
          "type": "uint8"
        }
      ],
      "stateMutability": "view",
      "type": "function"
    },
    {
      "inputs": [
        {
          "internalType": "address",
          "name": "spender",
          "type": "address"
        },
        {
          "internalType": "uint256",
          "name": "subtractedValue",
          "type": "uint256"
        }
      ],
      "name": "decreaseAllowance",
      "outputs": [
        {
          "internalType": "bool",
          "name": "",
          "type": "bool"
        }
      ],
      "stateMutability": "nonpayable",
      "type": "function"
    },
    {
      "inputs": [
        {
          "internalType": "address",
          "name": "delegatee",
          "type": "address"
        }
      ],
      "name": "delegate",
      "outputs": [],
      "stateMutability": "nonpayable",
      "type": "function"
    },
    {
      "inputs": [
        {
          "internalType": "address",
          "name": "delegatee",
          "type": "address"
        },
        {
          "internalType": "uint256",
          "name": "nonce",
          "type": "uint256"
        },
        {
          "internalType": "uint256",
          "name": "expiry",
          "type": "uint256"
        },
        {
          "internalType": "uint8",
          "name": "v",
          "type": "uint8"
        },
        {
          "internalType": "bytes32",
          "name": "r",
          "type": "bytes32"
        },
        {
          "internalType": "bytes32",
          "name": "s",
          "type": "bytes32"
        }
      ],
      "name": "delegateBySig",
      "outputs": [],
      "stateMutability": "nonpayable",
      "type": "function"
    },
    {
      "inputs": [
        {
          "internalType": "address",
          "name": "delegator",
          "type": "address"
        }
      ],
      "name": "delegates",
      "outputs": [
        {
          "internalType": "address",
          "name": "",
          "type": "address"
        }
      ],
      "stateMutability": "view",
      "type": "function"
    },
    {
      "inputs": [],
      "name": "faucet",
      "outputs": [],
      "stateMutability": "payable",
      "type": "function"
    },
    {
      "inputs": [
        {
          "internalType": "address",
          "name": "account",
          "type": "address"
        }
      ],
      "name": "getCurrentVotes",
      "outputs": [
        {
          "internalType": "uint256",
          "name": "",
          "type": "uint256"
        }
      ],
      "stateMutability": "view",
      "type": "function"
    },
    {
      "inputs": [
        {
          "internalType": "address",
          "name": "account",
          "type": "address"
        },
        {
          "internalType": "uint256",
          "name": "blockNumber",
          "type": "uint256"
        }
      ],
      "name": "getPriorVotes",
      "outputs": [
        {
          "internalType": "uint256",
          "name": "",
          "type": "uint256"
        }
      ],
      "stateMutability": "view",
      "type": "function"
    },
    {
      "inputs": [
        {
          "internalType": "address",
          "name": "spender",
          "type": "address"
        },
        {
          "internalType": "uint256",
          "name": "addedValue",
          "type": "uint256"
        }
      ],
      "name": "increaseAllowance",
      "outputs": [
        {
          "internalType": "bool",
          "name": "",
          "type": "bool"
        }
      ],
      "stateMutability": "nonpayable",
      "type": "function"
    },
    {
      "inputs": [
        {
          "internalType": "address",
          "name": "_holder",
          "type": "address"
        }
      ],
      "name": "lastUnlockBlock",
      "outputs": [
        {
          "internalType": "uint256",
          "name": "",
          "type": "uint256"
        }
      ],
      "stateMutability": "view",
      "type": "function"
    },
    {
      "inputs": [
        {
          "internalType": "address",
          "name": "_holder",
          "type": "address"
        },
        {
          "internalType": "uint256",
          "name": "_amount",
          "type": "uint256"
        }
      ],
      "name": "lock",
      "outputs": [],
      "stateMutability": "nonpayable",
      "type": "function"
    },
    {
      "inputs": [],
      "name": "lockFromTimestamp",
      "outputs": [
        {
          "internalType": "uint256",
          "name": "",
          "type": "uint256"
        }
      ],
      "stateMutability": "view",
      "type": "function"
    },
    {
      "inputs": [
        {
          "internalType": "uint256",
          "name": "_newLockFrom",
          "type": "uint256"
        }
      ],
      "name": "lockFromUpdate",
      "outputs": [],
      "stateMutability": "nonpayable",
      "type": "function"
    },
    {
      "inputs": [
        {
          "internalType": "address",
          "name": "_holder",
          "type": "address"
        }
      ],
      "name": "lockOf",
      "outputs": [
        {
          "internalType": "uint256",
          "name": "",
          "type": "uint256"
        }
      ],
      "stateMutability": "view",
      "type": "function"
    },
    {
      "inputs": [],
      "name": "lockToTimestamp",
      "outputs": [
        {
          "internalType": "uint256",
          "name": "",
          "type": "uint256"
        }
      ],
      "stateMutability": "view",
      "type": "function"
    },
    {
      "inputs": [
        {
          "internalType": "uint256",
          "name": "_newLockTo",
          "type": "uint256"
        }
      ],
      "name": "lockToUpdate",
      "outputs": [],
      "stateMutability": "nonpayable",
      "type": "function"
    },
    {
      "inputs": [],
      "name": "lockedSupply",
      "outputs": [
        {
          "internalType": "uint256",
          "name": "",
          "type": "uint256"
        }
      ],
      "stateMutability": "view",
      "type": "function"
    },
    {
      "inputs": [
        {
          "internalType": "address",
          "name": "_to",
          "type": "address"
        },
        {
          "internalType": "uint256",
          "name": "_amount",
          "type": "uint256"
        }
      ],
      "name": "manualMint",
      "outputs": [],
      "stateMutability": "nonpayable",
      "type": "function"
    },
    {
      "inputs": [],
      "name": "manualMintLimit",
      "outputs": [
        {
          "internalType": "uint256",
          "name": "",
          "type": "uint256"
        }
      ],
      "stateMutability": "view",
      "type": "function"
    },
    {
      "inputs": [],
      "name": "manualMinted",
      "outputs": [
        {
          "internalType": "uint256",
          "name": "",
          "type": "uint256"
        }
      ],
      "stateMutability": "view",
      "type": "function"
    },
    {
      "inputs": [],
      "name": "maxTransferAmount",
      "outputs": [
        {
          "internalType": "uint256",
          "name": "",
          "type": "uint256"
        }
      ],
      "stateMutability": "view",
      "type": "function"
    },
    {
      "inputs": [],
      "name": "maxTransferAmountRate",
      "outputs": [
        {
          "internalType": "uint16",
          "name": "",
          "type": "uint16"
        }
      ],
      "stateMutability": "view",
      "type": "function"
    },
    {
      "inputs": [],
      "name": "miner",
      "outputs": [
        {
          "internalType": "address",
          "name": "",
          "type": "address"
        }
      ],
      "stateMutability": "view",
      "type": "function"
    },
    {
      "inputs": [
        {
          "internalType": "address",
          "name": "_to",
          "type": "address"
        },
        {
          "internalType": "uint256",
          "name": "_amount",
          "type": "uint256"
        }
      ],
      "name": "mint",
      "outputs": [],
      "stateMutability": "nonpayable",
      "type": "function"
    },
    {
      "inputs": [],
      "name": "name",
      "outputs": [
        {
          "internalType": "string",
          "name": "",
          "type": "string"
        }
      ],
      "stateMutability": "view",
      "type": "function"
    },
    {
      "inputs": [
        {
          "internalType": "address",
          "name": "",
          "type": "address"
        }
      ],
      "name": "nonces",
      "outputs": [
        {
          "internalType": "uint256",
          "name": "",
          "type": "uint256"
        }
      ],
      "stateMutability": "view",
      "type": "function"
    },
    {
      "inputs": [
        {
          "internalType": "address",
          "name": "",
          "type": "address"
        }
      ],
      "name": "numCheckpoints",
      "outputs": [
        {
          "internalType": "uint32",
          "name": "",
          "type": "uint32"
        }
      ],
      "stateMutability": "view",
      "type": "function"
    },
    {
      "inputs": [],
      "name": "owner",
      "outputs": [
        {
          "internalType": "address",
          "name": "",
          "type": "address"
        }
      ],
      "stateMutability": "view",
      "type": "function"
    },
    {
      "inputs": [],
      "name": "profileAgeReq",
      "outputs": [
        {
          "internalType": "uint64",
          "name": "",
          "type": "uint64"
        }
      ],
      "stateMutability": "view",
      "type": "function"
    },
    {
      "inputs": [
        {
          "internalType": "address",
          "name": "_toRemove",
          "type": "address"
        }
      ],
      "name": "removeAuthorized",
      "outputs": [],
      "stateMutability": "nonpayable",
      "type": "function"
    },
    {
      "inputs": [],
      "name": "renounceOwnership",
      "outputs": [],
      "stateMutability": "nonpayable",
      "type": "function"
    },
    {
      "inputs": [
        {
          "internalType": "address",
          "name": "_account",
          "type": "address"
        },
        {
          "internalType": "bool",
          "name": "_excluded",
          "type": "bool"
        }
      ],
      "name": "setExcludedFromAntiWhale",
      "outputs": [],
      "stateMutability": "nonpayable",
      "type": "function"
    },
    {
      "inputs": [
        {
          "internalType": "uint64",
          "name": "_age",
          "type": "uint64"
        }
      ],
      "name": "setProfileAgeReq",
      "outputs": [
        {
          "internalType": "bool",
          "name": "success",
          "type": "bool"
        }
      ],
      "stateMutability": "nonpayable",
      "type": "function"
    },
    {
      "inputs": [],
      "name": "symbol",
      "outputs": [
        {
          "internalType": "string",
          "name": "",
          "type": "string"
        }
      ],
      "stateMutability": "view",
      "type": "function"
    },
    {
      "inputs": [
        {
          "internalType": "address",
          "name": "_holder",
          "type": "address"
        }
      ],
      "name": "totalBalanceOf",
      "outputs": [
        {
          "internalType": "uint256",
          "name": "",
          "type": "uint256"
        }
      ],
      "stateMutability": "view",
      "type": "function"
    },
    {
      "inputs": [],
      "name": "totalLock",
      "outputs": [
        {
          "internalType": "uint256",
          "name": "",
          "type": "uint256"
        }
      ],
      "stateMutability": "view",
      "type": "function"
    },
    {
      "inputs": [],
      "name": "totalSupply",
      "outputs": [
        {
          "internalType": "uint256",
          "name": "",
          "type": "uint256"
        }
      ],
      "stateMutability": "view",
      "type": "function"
    },
    {
      "inputs": [
        {
          "internalType": "address",
          "name": "recipient",
          "type": "address"
        },
        {
          "internalType": "uint256",
          "name": "amount",
          "type": "uint256"
        }
      ],
      "name": "transfer",
      "outputs": [
        {
          "internalType": "bool",
          "name": "",
          "type": "bool"
        }
      ],
      "stateMutability": "nonpayable",
      "type": "function"
    },
    {
      "inputs": [
        {
          "internalType": "address",
          "name": "_to",
          "type": "address"
        }
      ],
      "name": "transferAll",
      "outputs": [],
      "stateMutability": "nonpayable",
      "type": "function"
    },
    {
      "inputs": [
        {
          "internalType": "address",
          "name": "sender",
          "type": "address"
        },
        {
          "internalType": "address",
          "name": "recipient",
          "type": "address"
        },
        {
          "internalType": "uint256",
          "name": "amount",
          "type": "uint256"
        }
      ],
      "name": "transferFrom",
      "outputs": [
        {
          "internalType": "bool",
          "name": "",
          "type": "bool"
        }
      ],
      "stateMutability": "nonpayable",
      "type": "function"
    },
    {
      "inputs": [
        {
          "internalType": "address",
          "name": "newOwner",
          "type": "address"
        }
      ],
      "name": "transferOwnership",
      "outputs": [],
      "stateMutability": "nonpayable",
      "type": "function"
    },
    {
      "inputs": [],
      "name": "unlock",
      "outputs": [],
      "stateMutability": "nonpayable",
      "type": "function"
    },
    {
      "inputs": [
        {
          "internalType": "address",
          "name": "account",
          "type": "address"
        },
        {
          "internalType": "uint256",
          "name": "amount",
          "type": "uint256"
        }
      ],
      "name": "unlockForUser",
      "outputs": [],
      "stateMutability": "nonpayable",
      "type": "function"
    },
    {
      "inputs": [],
      "name": "unlockedSupply",
      "outputs": [
        {
          "internalType": "uint256",
          "name": "",
          "type": "uint256"
        }
      ],
      "stateMutability": "view",
      "type": "function"
    },
    {
      "inputs": [
        {
          "internalType": "uint16",
          "name": "_maxTransferAmountRate",
          "type": "uint16"
        }
      ],
      "name": "updateMaxTransferAmountRate",
      "outputs": [],
      "stateMutability": "nonpayable",
      "type": "function"
    }
  ],
  "bytecode": "0x60806040526000600c55600d8054600160a01b600160e01b03191690556010805461ffff19166127101790553480156200003857600080fd5b506040516200363f3803806200363f833981810160405260c08110156200005e57600080fd5b81019080805160405193929190846401000000008211156200007f57600080fd5b9083019060208201858111156200009557600080fd5b8251640100000000811182820188101715620000b057600080fd5b82525081516020918201929091019080838360005b83811015620000df578181015183820152602001620000c5565b50505050905090810190601f1680156200010d5780820380516001836020036101000a031916815260200191505b50604052602001805160405193929190846401000000008211156200013157600080fd5b9083019060208201858111156200014757600080fd5b82516401000000008111828201881017156200016257600080fd5b82525081516020918201929091019080838360005b838110156200019157818101518382015260200162000177565b50505050905090810190601f168015620001bf5780820380516001836020036101000a031916815260200191505b50604090815260208281015191830151606084015160809094015188519396509094509187918791620001f99160039190850190620002f9565b5080516200020f906004906020840190620002f9565b50506005805460ff191660121790555060006200022b620002f5565b60058054610100600160a81b0319166101006001600160a01b03841690810291909117909155604051919250906000907f8be0079c531659141344cd1fd0a4f28419497f9722a3daafe3b4186f6b6457e0908290a350600793909355600b91909155600955600a55505033600090815260116020526040808220805460ff1990811660019081179092557f4ad3b33220dddc71b994a52d72c06b10862965f7d926534c05c00fb7e819e7b78054821683179055308452919092208054909116909117905562000395565b3390565b828054600181600116156101000203166002900490600052602060002090601f016020900481019282601f106200033c57805160ff19168380011785556200036c565b828001600101855582156200036c579182015b828111156200036c5782518255916020019190600101906200034f565b506200037a9291506200037e565b5090565b5b808211156200037a57600081556001016200037f565b61329a80620003a56000396000f3fe6080604052600436106103765760003560e01c806389a2867c116101d1578063c38533c611610102578063e4c5ff46116100a0578063f2fde38b1161006f578063f2fde38b14610d26578063f85b84a414610d59578063f96cbc1c14610d6e578063fd3d27b814610da257610376565b8063e4c5ff4614610c64578063e6b2fb4a14610c9d578063e7a324dc14610cb2578063f1127ed814610cc757610376565b8063ca5c7b91116100dc578063ca5c7b9114610bd9578063cf1c316a14610bee578063dd62ed3e14610c21578063de5f72fd14610c5c57610376565b8063c38533c614610b20578063c3cda52014610b4a578063c7f59a6714610b9e57610376565b8063a4710c761161016f578063a9e7572311610149578063a9e7572314610a6c578063af2b0f6614610a81578063b4b5ea5714610aba578063b918161114610aed57610376565b8063a4710c7614610a09578063a69df4b514610a1e578063a9059cbb14610a3357610376565b80639358928b116101ab5780639358928b1461097357806395d89b4114610988578063a3a7e7f31461099d578063a457c2d7146109d057610376565b806389a2867c146109165780638d37b6d2146109495780638da5cb5b1461095e57610376565b80633ff8bf2e116102ab5780635c19a95c1161024957806370a082311161022357806370a0823114610862578063715018a614610895578063782d6fe1146108aa5780637ecebe00146108e357610376565b80635c19a95c146107b55780636a141e2c146107e85780636fcfff451461081657610376565b8063485d7d9411610285578063485d7d94146106e95780634b0ee02a1461071c578063587cde1e1461074f5780635a46d3b51461078257610376565b80633ff8bf2e1461065a57806340346c491461068657806340c10f19146106b057610376565b806323b872dd11610318578063349dc329116102f2578063349dc329146105c6578063355274ea146105f7578063395093511461060c5780633a1aae351461064557610376565b806323b872dd1461051f578063282d3fdf14610562578063313ce5671461059b57610376565b806318160ddd1161035457806318160ddd1461047e5780631bc52835146104a5578063202b1760146104d757806320606b701461050a57610376565b806306fdde031461037b578063095ea7b3146104055780630cb285e214610452575b600080fd5b34801561038757600080fd5b50610390610db7565b6040805160208082528351818301528351919283929083019185019080838360005b838110156103ca5781810151838201526020016103b2565b50505050905090810190601f1680156103f75780820380516001836020036101000a031916815260200191505b509250505060405180910390f35b34801561041157600080fd5b5061043e6004803603604081101561042857600080fd5b506001600160a01b038135169060200135610e4d565b604080519115158252519081900360200190f35b34801561045e57600080fd5b5061047c6004803603602081101561047557600080fd5b5035610e6b565b005b34801561048a57600080fd5b50610493610edc565b60408051918252519081900360200190f35b3480156104b157600080fd5b506104ba610ee2565b6040805167ffffffffffffffff9092168252519081900360200190f35b3480156104e357600080fd5b50610493600480360360208110156104fa57600080fd5b50356001600160a01b0316610ef9565b34801561051657600080fd5b50610493610fbf565b34801561052b57600080fd5b5061043e6004803603606081101561054257600080fd5b506001600160a01b03813581169160208101359091169060400135610fe3565b34801561056e57600080fd5b5061047c6004803603604081101561058557600080fd5b506001600160a01b03813516906020013561106a565b3480156105a757600080fd5b506105b06111fb565b6040805160ff9092168252519081900360200190f35b3480156105d257600080fd5b506105db611204565b604080516001600160a01b039092168252519081900360200190f35b34801561060357600080fd5b50610493611213565b34801561061857600080fd5b5061043e6004803603604081101561062f57600080fd5b506001600160a01b038135169060200135611219565b34801561065157600080fd5b50610493611267565b34801561066657600080fd5b5061066f61126d565b6040805161ffff9092168252519081900360200190f35b34801561069257600080fd5b5061047c600480360360208110156106a957600080fd5b5035611277565b3480156106bc57600080fd5b5061047c600480360360408110156106d357600080fd5b506001600160a01b0381351690602001356112e8565b3480156106f557600080fd5b5061047c6004803603602081101561070c57600080fd5b50356001600160a01b031661131b565b34801561072857600080fd5b506104936004803603602081101561073f57600080fd5b50356001600160a01b03166113b4565b34801561075b57600080fd5b506105db6004803603602081101561077257600080fd5b50356001600160a01b03166113e1565b34801561078e57600080fd5b50610493600480360360208110156107a557600080fd5b50356001600160a01b03166113ff565b3480156107c157600080fd5b5061047c600480360360208110156107d857600080fd5b50356001600160a01b031661141a565b3480156107f457600080fd5b5061047c6004803603602081101561080b57600080fd5b503561ffff16611427565b34801561082257600080fd5b506108496004803603602081101561083957600080fd5b50356001600160a01b0316611577565b6040805163ffffffff9092168252519081900360200190f35b34801561086e57600080fd5b506104936004803603602081101561088557600080fd5b50356001600160a01b031661158f565b3480156108a157600080fd5b5061047c6115aa565b3480156108b657600080fd5b50610493600480360360408110156108cd57600080fd5b506001600160a01b03813516906020013561165c565b3480156108ef57600080fd5b506104936004803603602081101561090657600080fd5b50356001600160a01b0316611864565b34801561092257600080fd5b506104936004803603602081101561093957600080fd5b50356001600160a01b0316611876565b34801561095557600080fd5b50610493611891565b34801561096a57600080fd5b506105db611897565b34801561097f57600080fd5b506104936118ab565b34801561099457600080fd5b506103906118ba565b3480156109a957600080fd5b5061047c600480360360208110156109c057600080fd5b50356001600160a01b031661191b565b3480156109dc57600080fd5b5061043e600480360360408110156109f357600080fd5b506001600160a01b038135169060200135611a09565b348015610a1557600080fd5b50610493611a71565b348015610a2a57600080fd5b5061047c611a77565b348015610a3f57600080fd5b5061043e60048036036040811015610a5657600080fd5b506001600160a01b038135169060200135611a8e565b348015610a7857600080fd5b50610493611aa2565b348015610a8d57600080fd5b5061047c60048036036040811015610aa457600080fd5b506001600160a01b038135169060200135611ac6565b348015610ac657600080fd5b5061049360048036036020811015610add57600080fd5b50356001600160a01b0316611b5e565b348015610af957600080fd5b5061043e60048036036020811015610b1057600080fd5b50356001600160a01b0316611bc2565b348015610b2c57600080fd5b5061047c60048036036020811015610b4357600080fd5b5035611bd7565b348015610b5657600080fd5b5061047c600480360360c0811015610b6d57600080fd5b506001600160a01b038135169060208101359060408101359060ff6060820135169060808101359060a00135611c48565b348015610baa57600080fd5b5061047c60048036036040811015610bc157600080fd5b506001600160a01b0381351690602001351515611ebb565b348015610be557600080fd5b50610493611f52565b348015610bfa57600080fd5b5061047c60048036036020811015610c1157600080fd5b50356001600160a01b0316611f5c565b348015610c2d57600080fd5b5061049360048036036040811015610c4457600080fd5b506001600160a01b0381358116916020013516611fe2565b61047c61200d565b348015610c7057600080fd5b5061047c60048036036040811015610c8757600080fd5b506001600160a01b038135169060200135612023565b348015610ca957600080fd5b50610493612114565b348015610cbe57600080fd5b5061049361211a565b348015610cd357600080fd5b50610d0660048036036040811015610cea57600080fd5b5080356001600160a01b0316906020013563ffffffff1661213e565b6040805163ffffffff909316835260208301919091528051918290030190f35b348015610d3257600080fd5b5061047c60048036036020811015610d4957600080fd5b50356001600160a01b031661216b565b348015610d6557600080fd5b50610493612279565b348015610d7a57600080fd5b5061043e60048036036020811015610d9157600080fd5b503567ffffffffffffffff1661227f565b348015610dae57600080fd5b5061049361231b565b60038054604080516020601f6002600019610100600188161502019095169490940493840181900481028201810190925282815260609390929091830182828015610e435780601f10610e1857610100808354040283529160200191610e43565b820191906000526020600020905b815481529060010190602001808311610e2657829003601f168201915b5050505050905090565b6000610e61610e5a612331565b8484612335565b5060015b92915050565b3360009081526006602052604090205460ff1680610e98575033610e8d611897565b6001600160a01b0316145b610ed7576040805162461bcd60e51b8152602060048201526018602482015260008051602061314a833981519152604482015290519081900360640190fd5b600a55565b60025490565b600d54600160a01b900467ffffffffffffffff1681565b6000600954421015610f0d57506000610fba565b600a544210610f3557506001600160a01b0381166000908152600e6020526040902054610fba565b6001600160a01b0382166000908152600f6020526040812054610f59904290612421565b6001600160a01b0384166000908152600f6020526040812054600a549293509091610f8391612421565b6001600160a01b0385166000908152600e6020526040902054909150610fb5908290610faf908561247e565b906124d7565b925050505b919050565b7f8cad95687ba82c2ce50e74f7b754645e5117c3a5bec8151c0726d5857980a86681565b6000610ff084848461253e565b61106084610ffc612331565b61105b85604051806060016040528060288152602001613102602891396001600160a01b038a1660009081526001602052604081209061103a612331565b6001600160a01b03168152602081019190915260400160002054919061261b565b612335565b5060019392505050565b6001600160a01b0382166110c5576040805162461bcd60e51b815260206004820152601f60248201527f43616e6e6f74206c6f636b20746f20746865207a65726f206164647265737300604482015290519081900360640190fd5b6110ce8261158f565b811115611122576040805162461bcd60e51b815260206004820152601860248201527f4c6f636b20616d6f756e74206f7665722062616c616e63650000000000000000604482015290519081900360640190fd5b61112d82308361253e565b6001600160a01b0382166000908152600e602052604090205461115090826126b2565b6001600160a01b0383166000908152600e602052604090205560085461117690826126b2565b6008556009546001600160a01b0383166000908152600f602052604090205410156111b8576009546001600160a01b0383166000908152600f60205260409020555b6040805182815290516001600160a01b038416917f625fed9875dada8643f2418b838ae0bc78d9a148a18eee4ee1979ff0f3f5d427919081900360200190a25050565b60055460ff1690565b600d546001600160a01b031681565b60075490565b6000610e61611226612331565b8461105b8560016000611237612331565b6001600160a01b03908116825260208083019390935260409182016000908120918c1681529252902054906126b2565b60085490565b60105461ffff1681565b3360009081526006602052604090205460ff16806112a4575033611299611897565b6001600160a01b0316145b6112e3576040805162461bcd60e51b8152602060048201526018602482015260008051602061314a833981519152604482015290519081900360640190fd5b600755565b6112f2828261270c565b6001600160a01b038083166000908152601260205260408120546113179216836127fc565b5050565b611323612331565b6001600160a01b0316611334611897565b6001600160a01b03161461137d576040805162461bcd60e51b8152602060048201819052602482015260008051602061312a833981519152604482015290519081900360640190fd5b6001600160a01b03811633141561139357600080fd5b6001600160a01b03166000908152600660205260409020805460ff19169055565b6000610e656113c28361158f565b6001600160a01b0384166000908152600e6020526040902054906126b2565b6001600160a01b039081166000908152601260205260409020541690565b6001600160a01b03166000908152600e602052604090205490565b6114243382612939565b50565b3360009081526006602052604090205460ff1680611454575033611449611897565b6001600160a01b0316145b611493576040805162461bcd60e51b8152602060048201526018602482015260008051602061314a833981519152604482015290519081900360640190fd5b6127108161ffff1611156114d85760405162461bcd60e51b8152600401808060200182810382526057815260200180612f746057913960600191505060405180910390fd5b60328161ffff16101561151c5760405162461bcd60e51b815260040180806020018281038252604e815260200180613093604e913960600191505060405180910390fd5b6010546040805161ffff9283168152918316602083015280517fff6316521befb2f41341a167cc0af9a05541f2b9d73de40cba35c37d34e87e6f9281900390910190a16010805461ffff191661ffff92909216919091179055565b60146020526000908152604090205463ffffffff1681565b6001600160a01b031660009081526020819052604090205490565b6115b2612331565b6001600160a01b03166115c3611897565b6001600160a01b03161461160c576040805162461bcd60e51b8152602060048201819052602482015260008051602061312a833981519152604482015290519081900360640190fd5b60055460405160009161010090046001600160a01b0316907f8be0079c531659141344cd1fd0a4f28419497f9722a3daafe3b4186f6b6457e0908390a360058054610100600160a81b0319169055565b600042821061169c5760405162461bcd60e51b815260040180806020018281038252602b8152602001806131dd602b913960400191505060405180910390fd5b6001600160a01b03831660009081526014602052604090205463ffffffff16806116ca576000915050610e65565b6001600160a01b038416600090815260136020908152604080832063ffffffff600019860181168552925290912054168310611739576001600160a01b03841660009081526013602090815260408083206000199490940163ffffffff16835292905220600101549050610e65565b6001600160a01b038416600090815260136020908152604080832083805290915290205463ffffffff16831015611774576000915050610e65565b600060001982015b8163ffffffff168163ffffffff16111561182d57600282820363ffffffff160481036117a6612edb565b506001600160a01b038716600090815260136020908152604080832063ffffffff80861685529083529281902081518083019092528054909316808252600190930154918101919091529087141561180857602001519450610e659350505050565b805163ffffffff1687111561181f57819350611826565b6001820392505b505061177c565b506001600160a01b038516600090815260136020908152604080832063ffffffff9094168352929052206001015491505092915050565b60156020526000908152604090205481565b6001600160a01b03166000908152600f602052604090205490565b60095481565b60055461010090046001600160a01b031690565b60006118b5610edc565b905090565b60048054604080516020601f6002600019610100600188161502019095169490940493840181900481028201810190925282815260609390929091830182828015610e435780601f10610e1857610100808354040283529160200191610e43565b336000908152600e6020526040808220546001600160a01b0384168352912054611944916126b2565b6001600160a01b0382166000908152600e6020908152604080832093909355600954600f909152919020541015611992576009546001600160a01b0382166000908152600f60205260409020555b336000908152600f6020526040808220546001600160a01b038416835291205410156119d957336000908152600f6020526040808220546001600160a01b03841683529120555b336000818152600e60209081526040808320839055600f9091528120556114249082611a048261158f565b61253e565b6000610e61611a16612331565b8461105b856040518060600160405280602581526020016132086025913960016000611a40612331565b6001600160a01b03908116825260208083019390935260409182016000908120918d1681529252902054919061261b565b600a5481565b6000611a8233610ef9565b905061142433826129ce565b6000610e61611a9b612331565b848461253e565b6010546000906118b59061271090610faf9061ffff16611ac0610edc565b9061247e565b3360009081526006602052604090205460ff1680611af3575033611ae8611897565b6001600160a01b0316145b611b32576040805162461bcd60e51b8152602060048201526018602482015260008051602061314a833981519152604482015290519081900360640190fd5b6000611b3d83610ef9565b90508015611b4f57611b4f83826129ce565b611b5983836129ce565b505050565b6001600160a01b03811660009081526014602052604081205463ffffffff1680611b89576000611bbb565b6001600160a01b038316600090815260136020908152604080832063ffffffff60001986011684529091529020600101545b9392505050565b60066020526000908152604090205460ff1681565b3360009081526006602052604090205460ff1680611c04575033611bf9611897565b6001600160a01b0316145b611c43576040805162461bcd60e51b8152602060048201526018602482015260008051602061314a833981519152604482015290519081900360640190fd5b600955565b60007f8cad95687ba82c2ce50e74f7b754645e5117c3a5bec8151c0726d5857980a866611c73610db7565b80519060200120611c82612b37565b60408051602080820195909552808201939093526060830191909152306080808401919091528151808403909101815260a0830182528051908401207fe48329057bfd03d55e49b547132e39cffd9c1820ad7b9d4c5307691425d15adf60c08401526001600160a01b038b1660e084015261010083018a90526101208084018a9052825180850390910181526101408401835280519085012061190160f01b6101608501526101628401829052610182808501829052835180860390910181526101a285018085528151918701919091206000918290526101c2860180865281905260ff8b166101e287015261020286018a90526102228601899052935192965090949293909260019261024280840193601f198301929081900390910190855afa158015611db5573d6000803e3d6000fd5b5050604051601f1901519150506001600160a01b038116611e075760405162461bcd60e51b815260040180806020018281038252602a81526020018061316a602a913960400191505060405180910390fd5b6001600160a01b03811660009081526015602052604090208054600181019091558914611e655760405162461bcd60e51b8152600401808060200182810382526026815260200180612f4e6026913960400191505060405180910390fd5b87421115611ea45760405162461bcd60e51b815260040180806020018281038252602a815260200180612fcb602a913960400191505060405180910390fd5b611eae818b612939565b505050505b505050505050565b3360009081526006602052604090205460ff1680611ee8575033611edd611897565b6001600160a01b0316145b611f27576040805162461bcd60e51b8152602060048201526018602482015260008051602061314a833981519152604482015290519081900360640190fd5b6001600160a01b03919091166000908152601160205260409020805460ff1916911515919091179055565b60006118b5611267565b611f64612331565b6001600160a01b0316611f75611897565b6001600160a01b031614611fbe576040805162461bcd60e51b8152602060048201819052602482015260008051602061312a833981519152604482015290519081900360640190fd5b6001600160a01b03166000908152600660205260409020805460ff19166001179055565b6001600160a01b03918216600090815260016020908152604080832093909416825291909152205490565b6120213369021e19e0c9bab240000061270c565b565b3360009081526006602052604090205460ff1680612050575033612045611897565b6001600160a01b0316145b61208f576040805162461bcd60e51b8152602060048201526018602482015260008051602061314a833981519152604482015290519081900360640190fd5b600b54600c54106120d15760405162461bcd60e51b81526004018080602001828103825260308152602001806130636030913960400191505060405180910390fd5b6120db828261270c565b6001600160a01b038083166000908152601260205260408120546121009216836127fc565b600c5461210d90826126b2565b600c555050565b600c5481565b7fe48329057bfd03d55e49b547132e39cffd9c1820ad7b9d4c5307691425d15adf81565b60136020908152600092835260408084209091529082529020805460019091015463ffffffff9091169082565b612173612331565b6001600160a01b0316612184611897565b6001600160a01b0316146121cd576040805162461bcd60e51b8152602060048201819052602482015260008051602061312a833981519152604482015290519081900360640190fd5b6001600160a01b0381166122125760405162461bcd60e51b8152600401808060200182810382526026815260200180612ff56026913960400191505060405180910390fd5b6005546040516001600160a01b0380841692610100900416907f8be0079c531659141344cd1fd0a4f28419497f9722a3daafe3b4186f6b6457e090600090a3600580546001600160a01b0390921661010002610100600160a81b0319909216919091179055565b600b5481565b3360009081526006602052604081205460ff16806122ac5750336122a1611897565b6001600160a01b0316145b6122eb576040805162461bcd60e51b8152602060048201526018602482015260008051602061314a833981519152604482015290519081900360640190fd5b50600d805467ffffffffffffffff8316600160a01b0267ffffffffffffffff60a01b199091161790556001919050565b60006118b560085461232b610edc565b90612421565b3390565b6001600160a01b03831661237a5760405162461bcd60e51b81526004018080602001828103825260248152602001806131b96024913960400191505060405180910390fd5b6001600160a01b0382166123bf5760405162461bcd60e51b815260040180806020018281038252602281526020018061301b6022913960400191505060405180910390fd5b6001600160a01b03808416600081815260016020908152604080832094871680845294825291829020859055815185815291517f8c5be1e5ebec7d5bd14f71427d1e84f3dd0314c0f7b2291e5b200ac8c7c3b9259281900390910190a3505050565b600082821115612478576040805162461bcd60e51b815260206004820152601e60248201527f536166654d6174683a207375627472616374696f6e206f766572666c6f770000604482015290519081900360640190fd5b50900390565b60008261248d57506000610e65565b8282028284828161249a57fe5b0414611bbb5760405162461bcd60e51b81526004018080602001828103825260218152602001806130e16021913960400191505060405180910390fd5b600080821161252d576040805162461bcd60e51b815260206004820152601a60248201527f536166654d6174683a206469766973696f6e206279207a65726f000000000000604482015290519081900360640190fd5b81838161253657fe5b049392505050565b828282600061254b611aa2565b11156125de576001600160a01b03831660009081526011602052604090205460ff1615801561259357506001600160a01b03821660009081526011602052604090205460ff16155b156125de576125a0611aa2565b8111156125de5760405162461bcd60e51b8152600401808060200182810382526038815260200180612ef36038913960400191505060405180910390fd5b6125e9868686612b3c565b6001600160a01b03808716600090815260126020526040808220548884168352912054611eb3929182169116866127fc565b600081848411156126aa5760405162461bcd60e51b81526004018080602001828103825283818151815260200191508051906020019080838360005b8381101561266f578181015183820152602001612657565b50505050905090810190601f16801561269c5780820380516001836020036101000a031916815260200191505b509250505060405180910390fd5b505050900390565b600082820183811015611bbb576040805162461bcd60e51b815260206004820152601b60248201527f536166654d6174683a206164646974696f6e206f766572666c6f770000000000604482015290519081900360640190fd5b6001600160a01b038216612767576040805162461bcd60e51b815260206004820152601f60248201527f45524332303a206d696e7420746f20746865207a65726f206164647265737300604482015290519081900360640190fd5b61277360008383612c97565b60025461278090826126b2565b6002556001600160a01b0382166000908152602081905260409020546127a690826126b2565b6001600160a01b0383166000818152602081815260408083209490945583518581529351929391927fddf252ad1be2c89b69c2b068fc378daa952ba7f163c4a11628f55a4df523b3ef9281900390910190a35050565b816001600160a01b0316836001600160a01b03161415801561281e5750600081115b15611b59576001600160a01b038316156128b0576001600160a01b03831660009081526014602052604081205463ffffffff16908161285e576000612890565b6001600160a01b038516600090815260136020908152604080832063ffffffff60001987011684529091529020600101545b9050600061289e8285612421565b90506128ac86848484612d18565b5050505b6001600160a01b03821615611b59576001600160a01b03821660009081526014602052604081205463ffffffff1690816128eb57600061291d565b6001600160a01b038416600090815260136020908152604080832063ffffffff60001987011684529091529020600101545b9050600061292b82856126b2565b9050611eb385848484612d18565b6001600160a01b03808316600090815260126020526040812054909116906129608461158f565b6001600160a01b0385811660008181526012602052604080822080546001600160a01b031916898616908117909155905194955093928616927f3134e8a2e6d97e929a7e54011ea5485d7d196dd5f0ba4d4ef95803e8e3fc257f9190a46129c88284836127fc565b50505050565b6001600160a01b0382166000908152600e6020526040902054612a38576040805162461bcd60e51b815260206004820152601a60248201527f496e73756666696369656e74206c6f636b656420746f6b656e73000000000000604482015290519081900360640190fd5b6001600160a01b0382166000908152600e6020526040902054811115612a7357506001600160a01b0381166000908152600e60205260409020545b612a7c3061158f565b811115612a8f57612a8c3061158f565b90505b612a9a30838361253e565b6001600160a01b0382166000908152600e6020526040902054612abd9082612421565b6001600160a01b0383166000908152600e6020908152604080832093909355600f905220429055600854612af19082612421565b6008556040805182815290516001600160a01b038416917f6381d9813cabeb57471b5a7e05078e64845ccdb563146a6911d536f24ce960f1919081900360200190a25050565b600090565b6001600160a01b038316612b815760405162461bcd60e51b81526004018080602001828103825260258152602001806131946025913960400191505060405180910390fd5b6001600160a01b038216612bc65760405162461bcd60e51b8152600401808060200182810382526023815260200180612f2b6023913960400191505060405180910390fd5b612bd1838383612c97565b612c0e8160405180606001604052806026815260200161303d602691396001600160a01b038616600090815260208190526040902054919061261b565b6001600160a01b038085166000908152602081905260408082209390935590841681522054612c3d90826126b2565b6001600160a01b038084166000818152602081815260409182902094909455805185815290519193928716927fddf252ad1be2c89b69c2b068fc378daa952ba7f163c4a11628f55a4df523b3ef92918290030190a3505050565b612ca2838383611b59565b6001600160a01b038316611b5957600754612cc582612cbf610edc565b906126b2565b1115611b59576040805162461bcd60e51b815260206004820152601960248201527f45524332304361707065643a2063617020657863656564656400000000000000604482015290519081900360640190fd5b6000612d3c4260405180606001604052806038815260200161322d60389139612e7d565b905060008463ffffffff16118015612d8557506001600160a01b038516600090815260136020908152604080832063ffffffff6000198901811685529252909120548282169116145b15612dc2576001600160a01b038516600090815260136020908152604080832063ffffffff60001989011684529091529020600101829055612e33565b60408051808201825263ffffffff808416825260208083018681526001600160a01b038a166000818152601384528681208b8616825284528681209551865490861663ffffffff19918216178755925160019687015590815260149092529390208054928801909116919092161790555b604080518481526020810184905281516001600160a01b038816927fdec2bacdd2f05b59de34da9b523dff8be42e5e38e818c82fdb0bae774387a724928290030190a25050505050565b6000816401000000008410612ed35760405162461bcd60e51b815260206004820181815283516024840152835190928392604490910191908501908083836000831561266f578181015183820152602001612657565b509192915050565b60408051808201909152600080825260208201529056fe616e74695768616c653a205472616e7366657220616d6f756e74206578636565647320746865206d61785472616e73666572416d6f756e7445524332303a207472616e7366657220746f20746865207a65726f20616464726573734e4458546f6b656e3a3a64656c656761746542795369673a20696e76616c6964206e6f6e63657570646174654d61785472616e73666572416d6f756e74526174653a204d6178207472616e7366657220616d6f756e742072617465206d757374206e6f742065786365656420746865206d6178696d756d20726174652e4e4458546f6b656e3a3a64656c656761746542795369673a207369676e617475726520657870697265644f776e61626c653a206e6577206f776e657220697320746865207a65726f206164647265737345524332303a20617070726f766520746f20746865207a65726f206164647265737345524332303a207472616e7366657220616d6f756e7420657863656564732062616c616e636545524332303a206d616e75616c4d696e7465642067726561746572207468616e206d616e75616c4d696e744c696d69747570646174654d61785472616e73666572416d6f756e74526174653a204d6178207472616e7366657220616d6f756e742072617465206d757374206265206d6f7265207468616e20302e3030352e536166654d6174683a206d756c7469706c69636174696f6e206f766572666c6f7745524332303a207472616e7366657220616d6f756e74206578636565647320616c6c6f77616e63654f776e61626c653a2063616c6c6572206973206e6f7420746865206f776e657263616c6c6572206973206e6f7420617574686f72697a656400000000000000004e4458546f6b656e3a3a64656c656761746542795369673a20696e76616c6964207369676e617475726545524332303a207472616e736665722066726f6d20746865207a65726f206164647265737345524332303a20617070726f76652066726f6d20746865207a65726f20616464726573734e4458546f6b656e3a3a6765745072696f72566f7465733a206e6f74207965742064657465726d696e656445524332303a2064656372656173656420616c6c6f77616e63652062656c6f77207a65726f4e4458546f6b656e3a3a5f7772697465436865636b706f696e743a20626c6f636b206e756d62657220657863656564732033322062697473a264697066735822122093b59addefeb0be8e246d5c8ed607392d5e26c0d9e1614932e431f8804bb1e4f64736f6c634300060c0033",
  "linkReferences": {},
  "deployedLinkReferences": {}
}